S0100000506F6E6747616D652E7372656306
S11300000C94B5000C94D2000C94D2000C94D20041
S11300100C94D2000C94D2000C94D2000C94D20014
S11300200C94D2000C94D2000C94D2000C94D20004
S11300300C94D2000C94D2000C94D2000C94D200F4
S11300400C94D2000C94D2000C94D2000C94D200E4
S11300500C94D2000C94D2000C94D2000C94D200D4
S11300600C94D2000C94D2006E616E00696E66002E
S113007000407A10F35A00A0724E18090010A5D45B
S1130080E80000E87648170000E40B54020000CAB8
S11300909A3B000000E1F5050000809698000000FE
S11300A040420F000000A08601000000102700005D
S11300B00000E803000000006400000000000A00E3
S11300C0000000000100000000002C76D888DC67E6
S11300D04F0823DFC1DFAE59E1B1B796E5E3E4533E
S11300E0C63AE651997696E8E6C28426EB898C9B5B
S11300F062ED407C6FFCEFBC9C9F40F2BAA56FA5FB
S1130100F490055A2AF75C936B6CF9676DC11BFC7C
S1130110E0E40D47FEF520E6B500D0ED902E030097
S1130120943577050080841E080000204E0A0000E4
S113013000C80C333333330F986E12831141EF8DA3
S11301402114893BE65516CFFEE6DB18D1844B38E3
S11301501BF77C1D901DA4BBE424203284725E2214
S11301608100C9F124ECA1E53D2711241FBECFEF86
S1130170D8E0DEBFCDBF15E0A0E0B1E0E8EBF5E1EB
S113018002C005900D92A031B107D9F725E0A0E196
S1130190B5E001C01D92A131B207E1F70E945903F5
S11301A00C94DA0A0C9400005C9827E030E090E0AC
S11301B05D98AC01022E02C0559547950A94E2F76A
S11301C040FF02C05E9A01C05E985D9A21503109D9
S11301D078F70895569A559A549A539A529A5A9877
S11301E05B982FE986E891E0215080409040E1F748
S11301F000C000005B9A83EA0E94D40080EA0E9457
S1130200D40080EC0E94D40080E40E94D4008CE2EC
S11302100E94D40083ED90E30197F1F700C0000041
S11302208EE20E94D40083ED90E30197F1F700C0C1
S113023000008FE20E94D40083EC99E00197F1F76B
S113024000C0000086E20E94D40008955C9A27E072
S113025030E090E05D98AC01022E02C055954795C0
S11302600A94E2F740FF02C05E9A01C05E985D9A6C
S11302702150310978F70895CF93C82F81E80E945F
S1130280D4008C2F8F730E94D400CF910895CF9205
S1130290DF92EF92FF920F931F93CF93DF930F2E72
S11302A0F0E0EF2EF5E0FF2EF02DEC010F2EF0E143
S11302B0CF2EF5E0DF2EF02DF7018081F2E0EF0E76
S11302C0F11C806B0E94D40080E00E94D40080E185
S11302D00E94D40080EE0E94D4008FEF0E94260179
S11302E08E0100581F4F89910E942601C017D10723
S11302F0D1F7E801CE14DF04F9F6DF91CF911F9115
S11303000F91FF90EF90DF90CF90089520E034E0BC
S1130310FC01A901119241505040E1F70895242FA6
S1130320269526952695E62FF0E030E8239FE00DEC
S1130330F11D1124E80FF91F477080E890E002C016
S1130340959587954A95E2F79081892B8083089546
S11303504F925F926F927F928F929F92AF92BF92D1
S1130360CF92DF92EF92FF920F931F93CF93DF937D
S11303706C01C62F122F30E0261B3109C9019923C5
S113038024F488279927821B930B5C011C1730F4F3
S1130390F42ED02F9C2FC12F192F02C0F02ED42F52
S11303A081110FC0FD1618F48D2FDF2DF82E2E2D80
S11303B04D2F6C2FC6010E948F01DF5FFD16B8F729
S11303C05FC0802F90E0841B9109BC0122F4662752
S11303D07727681B790B662319F01C1770F450C03B
S11303E01C1708F44DC02E2D4D2F6C2FC6010E94F2
S11303F08F01CF5F1C17B8F743C070E080E090E036
S11304000E94E7042B013C01B5017727072E000C5D
S1130410880B990B0E94E9049B01AC01C301B20152
S11304200E9475042B013C010D2F812C912C540149
S1130430A3019201C501B4010E9409044B015C01AE
S113044020E030E040E05FE30E94750588237CF003
S1130450FD1610F4015001C00F5F20E030E040E8C9
S11304605FE3C501B4010E9408044B015C012E2D19
S1130470402F6C2FC6010E948F01CF5F1C17C0F65E
S1130480DF91CF911F910F91FF90EF90DF90CF906C
S1130490BF90AF909F908F907F906F905F904F90A0
S11304A008958F929F92AF92BF92CF92DF92EF9274
S11304B0FF920F931F93CF93DF936C01D62FF42EEB
S11304C0862F90E04C01820E911C88159905ACF0A2
S11304D01EC0CF2D2E2D4C2F6D2FC6010E948F01D3
S11304E0CF5F8C2F90E080179107A4F3DF5F8D2FEF
S11304F090E0881599053CF00AC0A42EB12CC501E2
S1130500800F911D8C01A016B1061CF3EFCFDF9173
S1130510CF911F910F91FF90EF90DF90CF90BF90FC
S1130520AF909F908F9008956F927F928F929F9239
S1130530AF92BF92CF92DF92EF92FF920F931F93ED
S1130540CF93DF93EC01962E842EA22EF22E822FCF
S1130550880F93E0E92EE81A142F121B202F412F45
S1130560CE010E948F01202F412F692DCE010E94C0
S11305708F011A2D180D202F412F692DCE010E94B5
S11305808F01202F412F692DCE010E948F01D92C7C
S1130590DA18202F482D6D2DCE010E948F011A2DBF
S11305A0190D202F482D612FCE010E948F01202F7D
S11305B0482D6D2DCE010E948F01202F482D612FD3
S11305C0CE010E948F01B12C1A141B040CF062C0DE
S11305D0712C11E080E090E0EE2044F48E2D870D24
S11305E00F2EF6E0EF2EF02DE80E09C08F199AE0D9
S11305F09E0DE92E24E0829FE00C1124FA94692CCC
S1130600611A202FD82CDF184D2D662DCE010E94A3
S11306108F01C92CC10E202F4D2D6C2DCE010E94AF
S11306208F01202FD82CDF0C4D2D662DCE010E947A
S11306308F01202F4D2D6C2DCE010E948F01D82CBF
S1130640D11A202F4D2DC92CCF186C2DCE010E940C
S11306508F01202F4D2DD92CDF0C6D2DCE010E9442
S11306608F01682C610E202F462D6C2DCE010E9427
S11306708F01202F462D6D2DCE010E948F01812FD9
S1130680012E000C990B1F5F24E0720E8A159B0546
S11306900CF4A2CFDF91CF911F910F91FF90EF90B7
S11306A0DF90CF90BF90AF909F908F907F906F908E
S11306B00895579A5F988BB18BB984B1856084B9DA
S11306C085B18A7F85B985B185B90E94EA008FEA30
S11306D00E94D40080E20E943C0180E091E00E94EC
S11306E047012FE784E89EE1215080409040E1F7E4
S11306F000C0000080E091E00E9486012FE382E4C4
S11307009FE0215080409040E1F700C000008091BC
S113071010058F5F80931005EE24E39400E02FE72B
S113072040E060E080E091E00E94A8010FE320E057
S113073040E060E080E091E00E94A8012FE74FE3F1
S113074060E080E091E00E94A8012FE740E06FE7BD
S113075080E091E00E94A80104E02FE340E06FE311
S113076080E091E00E94A8010CE02FE348E06FE3F1
S113077080E091E00E94A80104E12FE340E16FE3EF
S113078080E091E00E94A8010CE12FE348E16FE3CF
S113079080E091E00E94A8010FE32FE34BE36FE3B5
S11307A080E091E00E94A80107E32FE343E36FE3B5
S11307B080E091E00E94A8010FE22FE34BE26FE397
S11307C080E091E00E94A80107E22FE343E26FE397
S11307D080E091E00E94A80101E023E04FE16FE393
S11307E080E091E00E9494020BE023E04BE162E0A0
S11307F080E091E00E94510223E04BE16AE780E04F
S113080091E00E94510280E091E00E94470184CF70
S11308105058BB27AA270E9420040C943B050E9431
S11308202D0538F00E94340520F039F49F3F19F467
S113083026F40C942A050EF4E095E7FB0C942405A9
S1130840E92F0E944C0558F3BA176207730784070F
S1130850950720F079F4A6F50C946E050EF4E09556
S11308600B2EBA2FA02D0B01B90190010C01CA0166
S1130870A0011124FF27591B99F0593F50F4503E11
S113088068F11A16F040A22F232F342F4427585F03
S1130890F3CF469537952795A795F0405395C9F71B
S11308A07EF41F16BA0B620B730B840BBAF09150D3
S11308B0A1F0FF0FBB1F661F771F881FC2F70EC072
S11308C0BA0F621F731F841F48F487957795679545
S11308D0B795F7959E3F08F0B0CF9395880F08F031
S11308E09927EE0F9795879508950E9489040C9493
S11308F03B050E94340558F00E942D0540F029F470
S11309005F3F29F00C94240551110C946F050C944D
S11309102A050E944C0568F39923B1F3552391F3FA
S1130920951B550BBB27AA2762177307840738F05A
S11309309F5F5F4F220F331F441FAA1FA9F335D0B7
S11309400E2E3AF0E0E832D091505040E695001C6B
S1130950CAF72BD0FE2F29D0660F771F881FBB1F25
S1130960261737074807AB07B0E809F0BB0B802D03
S1130970BF01FF2793585F4F3AF09E3F510578F02F
S11309800C9424050C946F055F3FE4F3983ED4F374
S1130990869577956795B795F7959F5FC9F7880F03
S11309A0911D9695879597F90895E1E0660F771F55
S11309B0881FBB1F621773078407BA0720F0621BE6
S11309C0730B840BBA0BEE1F88F7E0950895E89437
S11309D009C097FB3EF490958095709561957F4F83
S11309E08F4F9F4F9923A9F0F92F96E9BB27939531
S11309F0F695879577956795B795F111F8CFFAF441
S1130A00BB0F11F460FF1BC06F5F7F4F8F4F9F4F71
S1130A1016C0882311F096E911C0772321F09EE8CF
S1130A20872F762F05C0662371F096E8862F70E035
S1130A3060E02AF09A95660F771F881FDAF7880F0F
S1130A409695879597F9089597F99F6780E870E0E0
S1130A5060E008959FEF80EC089500240A94161630
S1130A60170618060906089500240A941216130698
S1130A70140605060895092E0394000C11F4882326
S1130A8052F0BB0F40F4BF2B11F460FF04C06F5F42
S1130A907F4F8F4F9F4F089557FD9058440F551F18
S1130AA059F05F3F71F04795880F97FB991F61F0EC
S1130AB09F3F79F087950895121613061406551F63
S1130AC0F2CF4695F1DF08C0161617061806991FCF
S1130AD0F1CF86957105610508940895E894BB27C4
S1130AE066277727CB0197F908950E947A0508F4C1
S1130AF08FEF0895990F0008550FAA0BE0E8FEEF59
S1130B0016161706E807F907C0F012161306E407CD
S1130B10F50798F0621B730B840B950B39F40A26C6
S1130B2061F0232B242B252B21F408950A2609F4A4
S1130B30A140A6958FEF811D811D0895A0E1B0E02D
S1130B40E4EAF5E00C941B097C011B016A01FC0139
S1130B5017821682838181FF44C39E012F5F3F4F1A
S1130B603901F7019381F10193FD859193FF8191FF
S1130B701F01882309F431C3853239F493FD85912B
S1130B8093FF81911F01853239F4B70190E00E94EF
S1130B90400A56016501E5CF10E0512C912CFFE18C
S1130BA0F915D8F08B3279F038F4803279F0833249
S1130BB0A1F4F92DF0612EC08D3261F0803369F417
S1130BC0292D21602DC0392D3260932E892D84600A
S1130BD0982E2AC0E92DE86015C097FC2DC020EDA1
S1130BE0280F2A3088F496FE06C03AE0139F200DA1
S1130BF01124122F19C08AE0589E200D1124522E60
S1130C00E92DE0629E2E10C08E3231F496FCE5C2CE
S1130C10F92DF0649F2E08C08C3621F4292D20680C
S1130C20922E02C0883641F4F10193FD859193FF21
S1130C3081911F018111B3CF9BEB980F933020F466
S1130C40992D9061805E07C09BE9980F933008F05E
S1130C5066C1992D9F7E96FF16E09F73992E853667
S1130C6019F49064992E08C0863621F4392F30681F
S1130C70932E02C01111115097FE07C01C3350F47B
S1130C8044244394410E27E00BC0183038F027E089
S1130C9017E005C027E09CE3492E02C0212F412C18
S1130CA0560184E0A80EB11CF60160817181828135
S1130CB09381042DA3010E9452096C01F981FC87E0
S1130CC0F0FF02C0F3FF06C091FC06C092FE06C00E
S1130CD000E205C00DE203C00BE201C000E08C8518
S1130CE08C7019F001115AC29BC297FE10C04C0CB3
S1130CF0FC85F4FF04C08A81813309F44A941414F6
S1130D0074F528E0241578F588E0482E2CC096FC6C
S1130D102AC0812F90E08C159D059CF03CEFC316F2
S1130D203FEFD30674F0892D8068982E0AC0E2E064
S1130D30F0E0EC0FFD1FE10FF11D8081803319F409
S1130D4011501111F4CF97FE0EC044244394410E68
S1130D50812F90E0C816D9062CF41C1904C0442431
S1130D60439401C010E097FE06C01C141D0434F423
S1130D70C601019605C085E090E002C081E090E0E4
S1130D8001110196112331F0212F30E02F5F3F4FE5
S1130D90820F931F252D30E08217930714F4581AFD
S1130DA001C0512C892D897049F4552039F0B701BF
S1130DB080E290E00E94400A5A94F7CF002329F081
S1130DC0B701802F90E00E94400A93FC09C055208F
S1130DD039F0B70180E390E00E94400A5A94F7CFBB
S1130DE097FE4CC04601D7FE02C0812C912CC6014F
S1130DF088199909F301E80FF91FFE87ED87960119
S1130E0024193109388B2F87012F10E01195019592
S1130E1011093FEF8316930629F4B7018EE290E09F
S1130E200E94400AC814D9044CF08F85988988150B
S1130E30990524F4ED85FE85818101C080E3F1E00C
S1130E408F1A91082D853E852F5F3F4F3E872D8752
S1130E50801691062CF0B70190E00E94400AD9CF89
S1130E60C814D90441F49A81963320F4953319F4C3
S1130E703C8534FF81E3B70190E04EC08A81813321
S1130E8019F09C859F7E9C87B70190E00E94400AE0
S1130E90111105C094FC18C085E690E017C0B70195
S1130EA08EE290E00E94400A1E5F82E001E0080F9B
S1130EB0F301E80FF11D8081B70190E00E94400A20
S1130EC0802F0113F3CFE6CF85E490E0B7010E94B1
S1130ED0400AD7FC06C0C114D10441F4EC85E4FFF8
S1130EE005C0D194C194D1088DE201C08BE2B70151
S1130EF090E00E94400A80E32AE0C216D1042CF05C
S1130F008F5FFAE0CF1AD108F7CFB70190E00E94C3
S1130F10400AB701C601C0960E94400A54C18336F4
S1130F2031F0833779F0833509F056C020C056017B
S1130F3032E0A30EB11CF6018081898301E010E048
S1130F40630112C05601F2E0AF0EB11CF601C0807D
S1130F50D18096FE03C0612F70E002C06FEF7FEF77
S1130F60C6010E94350A8C01F92DFF7714C0560181
S1130F7022E0A20EB11CF601C080D18096FE03C00F
S1130F80612F70E002C06FEF7FEFC6010E942A0A52
S1130F908C01F92DF0689F2EF3FD1AC0852D90E089
S1130FA008171907A8F4B70180E290E00E94400AEC
S1130FB05A94F4CFF60197FC859197FE81916F01C5
S1130FC0B70190E00E94400A51105A94015011094F
S1130FD00115110579F7F7C0843611F0893661F5EA
S1130FE0560197FE09C024E0A20EB11CF6016081EF
S1130FF07181828193810AC0F2E0AF0EB11CF601C7
S113100060817181072E000C880B990BF92DFF76F6
S11310109F2E97FF09C090958095709561957F4F9D
S11310208F4F9F4FF0689F2E2AE030E0A3010E946B
S11310307C0AC82EC6183FC0092D853721F40F7EBF
S11310402AE030E01DC0097F8F3691F018F488350E
S113105059F0C3C0803719F0883711F0BEC0006161
S113106004FF09C0046007C094FE08C0066006C0FF
S113107028E030E005C020E130E002C020E132E0A9
S1131080560107FF09C084E0A80EB11CF601608177
S113109071818281938108C0F2E0AF0EB11CF60128
S11310A06081718180E090E0A3010E947C0AC82ED7
S11310B0C6180F77902E96FE0BC0092D0E7FC11611
S11310C050F494FE0AC092FC08C0092D0E7E05C09F
S11310D0DC2C092D03C0DC2C01C0D12E04FF0DC073
S11310E0FE01EC0DF11D8081803311F4097E09C0ED
S11310F002FF06C0D394D39404C0802F867809F0ED
S1131100D39403FD11C000FF06C01C2DD51480F438
S1131110150D1D190DC0D51458F4B70180E290E0E7
S11311200E94400AD394F7CFD51410F45D1801C07F
S1131130512C04FF10C0B70180E390E00E94400AE4
S113114002FF17C001FD03C088E790E002C088E5F4
S113115090E0B7010CC0802F867859F001FF02C0DF
S11311608BE201C080E207FD8DE2B70190E00E94AE
S1131170400AC11638F4B70180E390E00E94400AA7
S11311801150F7CFCA94F301EC0DF11D8081B70122
S113119090E00E94400AC110F5CF15C0F4E0F515A7
S11311A060F584E0581A93FE1FC0011127C02C85F6
S11311B023FF2AC008E610E0392D3071932EF80180
S11311C08491811124C0552009F4E4CCB70180E254
S11311D090E00E94400A5A94F6CFF70186819781E5
S11311E026C08FEF9FEF23C0B70180E290E00E94FA
S11311F0400A5A945110F8CFD8CF512CB701802F00
S113120090E00E94400AD3CF0CE610E0D5CF9110B5
S11312108052B70190E00E94400A0F5F1F4FCFCF6A
S113122023E0251510F483E0BDCF512CC0CF609688
S1131230E2E10C9437092F923F924F925F926F92A2
S11312407F928F929F92AF92BF92CF92DF92EF9252
S1131250FF920F931F93CF93DF93CDB7DEB7CA1BD3
S1131260DB0B0FB6F894DEBF0FBECDBF09942A88FE
S1131270398848885F846E847D848C849B84AA84A6
S1131280B984C884DF80EE80FD800C811B81AA8133
S1131290B981CE0FD11D0FB6F894DEBF0FBECDBFFE
S11312A0ED010895283008F027E03327DA01990F7B
S11312B0311D87FD916000966105710539F4326036
S11312C02E5F3D9330E32A95E1F708959F3F30F078
S11312D080387105610509F03C5F3C5F3D939130B6
S11312E008F08068911DDF93CF931F930F93FF92B3
S11312F0EF92192F987F9695E92F96959695E90F79
S1131300FF27E653FF4F99273327EE24FF24A70135
S1131310E70105900894079428F4360FE71EF81E99
S1131320491F511D660F771F881F991F0694A1F747
S11313300590079428F4E70EF81E491F561FC11D97
S1131340770F881F991F661F0694A1F705900794CD
S113135028F4F80E491F561FC71FD11D880F991F67
S1131360661F771F0694A1F70590079420F4490F90
S1131370561FC71FD81F990F661F771F881F069413
S1131380A9F784911095177041F0D695C795579594
S11313904795F794E7941A95C1F7E0E7F0E068946D
S11313A01590159135916591959105907FE273950E
S11313B0E118F10A430B560BC90BD009C0F7E10C35
S11313C0F11E431F561FC91FD01D7EF4703311F444
S11313D08A95E6CFE894015030F0080F0AF400270C
S11313E0021708F4202F2395022F7A3328F079E38B
S11313F07D932A95E9F710C07D932A9589F6069482
S113140097956795379517951794E118F10A430B4B
S1131410560BC90BD00998F023957E9173957A33B6
S113142008F070E37C932013B8F77E9170617D938C
S113143030F0839571E37D9370E32A95E1F71124ED
S1131440EF90FF900F911F91CF91DF91992787FD26
S113145090950895FC010590615070400110D8F7F3
S1131460809590958E0F9F1F0895FC0161507040E8
S113147001900110D8F7809590958E0F9F1F0895C5
S11314800F931F93CF93DF93FB01238121FD03C0AF
S11314908FEF9FEF2CC022FF16C046815781248115
S11314A035814217530744F4A081B1819D012F5F18
S11314B03F4F318320838C93268137812F5F3F4FA9
S11314C03783268314C08B01EC01FB010084F18572
S11314D0E02D0995892BE1F6D80116968D919C9102
S11314E01797019617969C938E931697CE01DF91CA
S11314F0CF911F910F910895FA01AA27283051F135
S1131500203181F1E8946F936E7F6E5F7F4F8F4F30
S11315109F4FAF4FB1E03ED0B4E03CD0670F781F8F
S1131520891F9A1FA11D680F791F8A1F911DA11D74
S11315306A0F711D811D911DA11D20D009F46894AD
S11315403F912AE0269F11243019305D3193DEF655
S1131550CF010895462F4770405D4193B3E00FD00B
S1131560C9F7F6CF462F4F70405D4A3318F0495DF6
S113157031FD4052419302D0A9F7EACFB4E0A695D9
S11315809795879577956795BA95C9F700976105FB
S1131590710508959B01AC010A2E06945795479551
S11315A037952795BA95C9F7620F731F841F951F46
S10B15B0A01D0895F894FFCF7B
S11315B87F7F7F7F717F717F7F7F7F7F7E7F7A7B55
S11315C87F7F7F7F7F7F7F7F7F717F7F717F7F7F3B
S11315D80000606060787F7F7F7F7F60606060600C
S11315E860707078783E3F1F1F0F070100000000ED
S11315F800000000000000000000000000000000DF
S113160800000000000000000000000000000000CE
S113161800000000000000000000000000000000BE
S113162800000000000000000000000000000000AE
S1131638FFFFF0F0F0F0F0F0F0F0F0F0F1F3F7FF66
S1131648FFFFF7F1F0F0F0F0F0F0F0F0F0F0F0FF59
S1131658000000000000FFFFFFFFFF000000000083
S113166800000000000083FFFFFFFFFF3C000101B2
S11316780303030303030101000000000101010146
S1131688030303030300000101030303030303012A
S1131698000000000000010101030303030300002C
S11316A8000101030303030301010000000000001B
S11316B8E0FF03000103070F1E3E7FFFFFFF9F0F9C
S11316C80F8FFFFFFF7F3E1E0F07030100013FFC42
S11316D8000000000000FFFFFFFFFF1C1C1C1C1C77
S11316E81C1C1C3C78F8F8F8F1EFDFFF7FFFE1C120
S11316F88181818181C1E1F9FFFF7F1F878080C0DB
S1131708FFFFFFFFFF78F0E0C0C0C0C0C0E0FFFFEC
S1131718FFFF3F070000808080FFFFFFFFFF3C784A
S1131728F0E0C0C0C0C0E0F0FFFFFF7F1F00000072
S11317380080E0F8FCFFFF3F1F1E3CF8F0E0C0808B
S113174800C0E0F0F83C1E1F3FFFFFFCF8E08000FB
S1131758000000000000FFFFFFFFFF000000000082
S11317680000000000000000FEFFFFFFFFBF8180B3
S113177880808080808080808080808080000000DD
S1131788FFFFFFFFFF000000000000000000FFFF54
S1131798FFFFFFFF0000000000FFFFFFFFFF000046
S11317A80000000000000000FFFFFFFFFF00000032
S11317B800000000000080C0E07030180C0C060621
S11317C8060C0C18183060E0C0800000000000000F
S11317D80000060E0E3EFEFEFEFEFE7E0E0E060007
S11317E800000000000000000080E0F0F8FCFC7E2F
S11317F83E1E0E0E0E060E0E0E1C3878E6060E1E43
S1131808FEFEFEFEFE0E0E0600000006060EFEFE9E
S1131818FEFEFEFE0E0E06060EFEFEFEFEFE7E0E0C
S11318280E06000000060E0EFEFEFEFEFE1E0E064E
S1131838000000000000000000000000000000009C
S1131848000000000000010100000000000000008A
S11318580000000000000000000000010101000079
S1131868000000000101000000000000000000006A
S11318780000000001010100000000000000010157
S1131888000000000000000000000000000000004C
S1131898000000000000000000000000000000003C
S11318A8000000000000000000000000000000002C
S11318B80000FFFFCECECECE001F1F1F38381F1FDB
S11318C81C383C1F0F00FFFF1C38381F1F07071F59
S11318D81F3B3B1F1F07071F1F3838FFFFFF000F61
S11318E81F38381CFFFF000F1F1F3B3B1F1F070F2C
S11318F81F1F3838FFFFFF0000000078FCFCCECF24
S1131908C7C3181F1F03031F1F181E1F3F3B1B01BC
S113191818FFFF1818000F1F3B3B3B1F0F001F1F2A
S11319281C383C1F1F18383F1F07001F3F3B3B193B
S11319380000F0F07070707000F0F0F00000F0F04B
S1131948000000F0F000F0F0F07070F0E080C0E00B
S1131958F07030707000C0E0F07070E0F0F000E0FB
S1131968F0707070F0F000C0E0F07030707000C07B
S1131978E0F07070F0F0F0000000006070703070FB
S1131988F0E00000EEFEFCE00000707030F0F0E0E3
S113199800E0F0707000E0F0703030706000F0F03B
S11319A8000000F0F00000F0F0F0607030B0F0E0FB
S11319B803000200010000000700060005000400FF
S9030000FC
