:100000000C9433030C9450030C9450030C94500341
:100010000C9450030C9450030C9450030C94500314
:100020000C9450030C9450030C9450030C94500304
:100030000C9450030C9450030C9450030C945003F4
:100040000C9450030C9450030C9450030C945003E4
:100050000C9450030C9450030C9450030C945003D4
:100060000C9450030C9450036E616E00696E660030
:1000700000407A10F35A00A0724E18090010A5D45F
:10008000E80000E87648170000E40B54020000CABC
:100090009A3B000000E1F505000080969800000002
:1000A00040420F000000A086010000001027000061
:1000B0000000E803000000006400000000000A00E7
:1000C000000000000100000000002C76D888DC67EA
:1000D0004F0823DFC1DFAE59E1B1B796E5E3E45342
:1000E000C63AE651997696E8E6C28426EB898C9B5F
:1000F00062ED407C6FFCEFBC9C9F40F2BAA56FA5FF
:10010000F490055A2AF75C936B6CF9676DC11BFC80
:10011000E0E40D47FEF520E6B500D0ED902E03009B
:10012000943577050080841E080000204E0A0000E8
:1001300000C80C333333330F986E12831141EF8DA7
:100140002114893BE65516CFFEE6DB18D1844B38E7
:100150001BF77C1D901DA4BBE424203284725E2218
:100160008100C9F124ECA1E53D2700000000007CDE
:10017000DAF2DA7C7CD6F2D67C387C3E7C38183CCD
:100180007E3C1838EABEEA38387AFE7A3800183CE5
:100190001800FFE7C3E7FF0018241800FFE7DBE7BC
:1001A000FF0C125C607064949E946402FEA0A0E058
:1001B00002FEA0A4FC5A3CE73C5AFE7C38381010E2
:1001C00038387CFE2844FE4428FAFA00FAFA609097
:1001D000FE80FE006691A95606060606062945FF22
:1001E000452910207E201008047E04081010543881
:1001F000101038541010780808080830783078301B
:100200000C1C7C1C0C60707C706000000000000006
:1002100000FA000000E000E00028FE28FE28245438
:10022000FE5448C4C81026466C926A040A0010E0C6
:10023000C000003844820000824438005438FE3840
:100240005410107C101000010E0C00101010101033
:10025000000006060004081020407C8A92A27C0060
:1002600042FE02004E92929262848292B2CC182890
:1002700048FE08E4A2A2A29C3C5292928C828488FE
:1002800090E06C9292926C629292947800002800B6
:100290000000022C0000001028448228282828286A
:1002A000008244281040809A90607C82BA9A723E04
:1002B0004888483EFE9292926C7C82828244FE8202
:1002C00082827CFE92929282FE909090807C8282CA
:1002D0008ACEFE101010FE0082FE8200040282FC14
:1002E00080FE10284482FE02020202FE403840FED8
:1002F000FE201008FE7C8282827CFE909090607CC2
:10030000828A847AFE90989462649292924CC08021
:10031000FE80C0FC020202FCF8040204F8FC021C8D
:1003200002FCC6281028C6C0201E20C0869A92B2A1
:10033000C200FE828282402010080400828282FE77
:100340002040804020020202020200C0E0100004AF
:100350002A2A1E02FE1422221C1C222222141C22E3
:100360002214FE1C2A2A2A1800107E9040182525E7
:10037000391EFE1020201E0022BE0200040202BC14
:1003800000FE081422000082FE02003E201E201EF5
:100390003E1020201E1C2222221C3F182424181844
:1003A0002424183F3E10202010122A2A2A2420201C
:1003B000FC22243C0202043E38040204383C020CB5
:1003C000023C2214081422320909093E22262A324C
:1003D0002200106C82000000EE000000826C100011
:1003E00040804020403C64C4643C78858586485CFD
:1003F0000202045E1C2A2AAA9A84AAAA9E82842A3D
:100400002A1E8284AA2A1E02042AAA9E0230784A40
:100410004E489CAAAAAA9A9C2A2A2A9A9CAA2A2AC4
:100420001A0000A23E820040A2BE420080A23E020C
:100430000F9424940F0F14A4140F3E2AAAA20004B0
:100440002A2A3E2A3E5090FE924C9292924C4C1296
:1004500012124C4C5212120C5C8282845E5C42027C
:10046000041E00B90505BE9C2222229CBC02020289
:10047000BC3C24FF2424127E92C266D4F43FF4D400
:10048000FF90946F0403117E90C0042A2A9E82007C
:100490000022BE820C1212524C1C0202445E005E0C
:1004A00050504EBEB0988CBE649494F414649494EE
:1004B00094640C12B202041C1010101010101010D2
:1004C0001CF40813355DF408142C5F0000DE0000F6
:1004D000102854284444285428105500AA00555583
:1004E000AA55AA55AA55AA55AA000000FF00080857
:1004F00008FF00282828FF000808FF00FF08080F51
:10050000080F2828283F002828EF00FF0000FF00E0
:10051000FF28282F203F2828E808F80808F808F8BE
:10052000282828F8000808080F00000000F808082C
:100530000808F8080808080F08000000FF08080865
:10054000080808080808FF08000000FF280000FF4E
:1005500000FF0000F808E800003F202F2828E808E6
:10056000E828282F202F0000FF00EF28282828281F
:100570002828EF00EF282828E8280808F808F82895
:1005800028282F2808080F080F0000F808F8000096
:1005900000F8280000003F2800000F080F0808FF9F
:1005A00008FF282828FF28080808F8000000000F86
:1005B00008FFFFFFFFFF0F0F0F0F0FFFFFFF0000F0
:1005C000000000FFFFF0F0F0F0F01C22221C223EA1
:1005D00054547C287E40406060407E407E40C6AAE5
:1005E0009282C61C22223C20027E04780460407E57
:1005F000404099A5E7A5993854925438324E804E20
:10060000320C52B2B20C0C121E120C3D465A62BC95
:100610007C929292007E8080807E54545454542266
:1006200022FA2222028A5222020222528A02000066
:10063000FF80C00701FF00001010D6D6106C486C78
:10064000246C60F090F060000018180000000808AA
:10065000000C02FF808000F88080780098B8E8489D
:10066000003C3C3C3C0011241FBECFEFD8E0DEBF75
:10067000CDBF15E0A0E0B1E0E6E3FCE202C00590EA
:100680000D92AA38B107D9F725E0AAE8B5E001C074
:100690001D92AE3AB207E1F70E94B10A0C94191606
:1006A0000C9400005C9827E030E090E05D98AC018D
:1006B000022E02C0559547950A94E2F740FF02C00A
:1006C0005E9A01C05E985D9A2150310978F70895CD
:1006D000569A559A549A539A529A5A985B982FE977
:1006E00086E891E0215080409040E1F700C0000092
:1006F0005B9A83EA0E94520380EA0E94520380ECD4
:100700000E94520380E40E9452038CE20E94520332
:1007100083ED90E30197F1F700C000008EE20E94A4
:10072000520383ED90E30197F1F700C000008FE2E0
:100730000E94520383EC99E00197F1F700C000009A
:1007400086E20E94520308955C9A27E030E090E030
:100750005D98AC01022E02C0559547950A94E2F7C8
:1007600040FF02C05E9A01C05E985D9A2150310937
:1007700078F70895CF93C82F81E80E9452038C2FF9
:100780008F730E945203CF910895CF92DF92EF9220
:10079000FF920F931F93CF93DF930F2EF4E0EF2E72
:1007A000F5E0FF2EF02DEC010F2EF4E1CF2EF5E059
:1007B000DF2EF02DF7018081F2E0EF0EF11C806B4F
:1007C0000E94520380E00E94520380E10E94520383
:1007D00080EE0E9452038FEF0E94A4038E01005806
:1007E0001F4F89910E94A403C017D107D1F7E801D8
:1007F000CE14DF04F9F6DF91CF911F910F91FF9096
:10080000EF90DF90CF90089520E034E0FC01A90143
:10081000119241505040E1F7089530E0F901EE0F98
:10082000FF1FEE0FFF1FE20FF31FE659FE4F55E0CB
:10083000560F9C0170E8479F200D311D11249491A3
:10084000D901A60FB11D9C936F5F31966513F7CF49
:100850000895242F269526952695E62FF0E030E87A
:10086000239FE00DF11D1124E80FF91F477080E868
:1008700090E002C0959587954A95E2F79081892B83
:1008800080830895EF92FF920F931F93CF93DF938E
:100890007C01C62FD42FF9012081222371F08F0112
:1008A0000F5F1F4F4D2F6C2FC7010E940D04CB5FB0
:1008B000F80121918F012111F5CFDF91CF911F9187
:1008C0000F91FF90EF9008954F925F926F927F92F9
:1008D0008F929F92AF92BF92CF92DF92EF92FF9250
:1008E0000F931F93CF93DF936C01C62F122F30E02D
:1008F000261B3109C901992324F488279927821BD3
:10090000930B5C011C1730F4F42ED02F9C2FC12FB9
:10091000192F02C0F02ED42F81110FC0FD1618F42C
:100920008D2FDF2DF82E2E2D4D2F6C2FC6010E94FE
:100930002904DF5FFD16B8F75FC0802F90E0841BAD
:100940009109BC0122F466277727681B790B66237F
:1009500019F01C1770F450C01C1708F44DC02E2D50
:100960004D2F6C2FC6010E942904CF5F1C17B8F7CA
:1009700043C070E080E090E00E94440D2B013C01F8
:10098000B5017727072E000C880B990B0E94460DA6
:100990009B01AC01C301B2010E94D20C2B013C01AE
:1009A0000D2F812C912C5401A3019201C501B4019A
:1009B0000E94660C4B015C0120E030E040E05FE308
:1009C0000E94D20D88237CF0FD1610F4015001C066
:1009D0000F5F20E030E040E85FE3C501B4010E9412
:1009E000650C4B015C012E2D402F6C2FC6010E941F
:1009F0002904CF5F1C17C0F6DF91CF911F910F9193
:100A0000FF90EF90DF90CF90BF90AF909F908F902E
:100A10007F906F905F904F9008958F929F92AF92CA
:100A2000BF92CF92DF92EF92FF920F931F93CF93DB
:100A3000DF936C01D62FF42E862F90E04C01820EAE
:100A4000911C88159905ACF01EC0CF2D2E2D4C2F72
:100A50006D2FC6010E942904CF5F8C2F90E0801774
:100A60009107A4F3DF5F8D2F90E0881599053CF086
:100A70000AC0A42EB12CC501800F911D8C01A016B7
:100A8000B1061CF3EFCFDF91CF911F910F91FF9033
:100A9000EF90DF90CF90BF90AF909F908F90089590
:100AA000BF92CF92DF92EF92FF920F931F93CF935B
:100AB000DF936C01162FF42ED22FC42FC00F0C2FF2
:100AC000262F0E946404D10F0F2D2D2F4F2D612F43
:100AD000C6010E9464040C2F2D2F4F2D6D2FC601CF
:100AE0000E9464042D2F4C2F612FC6010E946404C4
:100AF000DF91CF911F910F91FF90EF90DF90CF90FA
:100B0000BF9008956F927F928F929F92AF92BF9203
:100B1000CF92DF92EF92FF920F931F93CF93DF93C9
:100B2000EC01962E842EA22EF22E822F880F93E0B7
:100B3000E92EE81A142F121B202F412FCE010E94FC
:100B40002904202F412F692DCE010E9429041A2D3E
:100B5000180D202F412F692DCE010E942904202F2E
:100B6000412F692DCE010E942904D92CDA18202F9B
:100B7000482D6D2DCE010E9429041A2D190D202F0C
:100B8000482D612FCE010E942904202F482D6D2D64
:100B9000CE010E942904202F482D612FCE010E94F2
:100BA0002904B12C1A141B040CF062C0712C11E042
:100BB00080E090E0EE2044F48E2D870D0F2EF6E0BD
:100BC000EF2EF02DE80E09C08F199AE09E0DE92E48
:100BD00024E0829FE00C1124FA94692C611A202FE2
:100BE000D82CDF184D2D662DCE010E942904C92C6A
:100BF000C10E202F4D2D6C2DCE010E942904202FD7
:100C0000D82CDF0C4D2D662DCE010E942904202FFB
:100C10004D2D6C2DCE010E942904D82CD11A202FE5
:100C20004D2DC92CCF186C2DCE010E942904202FE8
:100C30004D2DD92CDF0C6D2DCE010E942904682C7E
:100C4000610E202F462D6C2DCE010E942904202FED
:100C5000462D6D2DCE010E942904812F012E000CFE
:100C6000990B1F5F24E0720E8A159B050CF4A2CF2E
:100C7000DF91CF911F910F91FF90EF90DF90CF9078
:100C8000BF90AF909F908F907F906F900895CF937B
:100C9000C82F8A3019F48DE00E944706E0ECF0E09E
:100CA000808185FFFDCFC093C60080E090E0CF91AA
:100CB0000895E0ECF0E080818823ECF78091C60095
:100CC00090E00895FC0180819181FB0120813181B8
:100CD000821B930B08951092C50087E68093C40091
:100CE000E0ECF0E080818D7F808386E08093C2001D
:100CF00088E18093C100E8EAF5E082E295E0938321
:100D0000828384E195E0918380830895579A5F9868
:100D10008BB18BB984B1856084B985B18A7F85B97F
:100D200085B185B90E9468038FEA0E94520380E270
:100D30000E94BA0384E091E00E94C5032AEA36EEDD
:100D400086E991E02150304080409040D9F7000082
:100D500084E091E00E9404042FEF33E284EF2150FD
:100D600030408040E1F700C000008091A0058F5F17
:100D70008093A0050895E1EAF5E08FE380838DE09C
:100D800081830E94081481709078992324F401973C
:100D90008E6F9F6F019680FD02C08FEF01C081E0D2
:100DA0008093A3050E94081481709078992324F4FD
:100DB00001978E6F9F6F019680FD02C08FEF01C07B
:100DC00081E0E1EAF5E0838383E084830895EF9294
:100DD0000F93EE24E39400E02FE740E060E084E02E
:100DE00091E00E9464040FE320E040E060E084E0D2
:100DF00091E00E9464042FE74FE360E084E091E01B
:100E00000E9464042FE740E06FE784E091E00E94D5
:100E1000640404E02FE340E06FE384E091E00E948B
:100E200064040CE02FE348E06FE384E091E00E946B
:100E3000640404E12FE340E16FE384E091E00E9469
:100E400064040CE12FE348E16FE384E091E00E9449
:100E500064040FE32FE34BE36FE384E091E00E942F
:100E6000640407E32FE343E36FE384E091E00E942F
:100E700064040FE22FE34BE26FE384E091E00E9411
:100E8000640407E22FE343E26FE384E091E00E9411
:100E900064040F91EF900895EF920F9384E091E036
:100EA0000E94040420E335E040E065E084E091E046
:100EB0000E944204EE24E39400E121E64CE064E168
:100EC00084E091E00E94500523E435E042E063E2D3
:100ED00084E091E00E94420421E64CE164E184E078
:100EE00091E00E94500529E435E044E063E284E0AB
:100EF00091E00E94420421E64CE264E184E091E04A
:100F00000E94500527E535E046E063E284E091E089
:100F10000E94420484E091E00E94C5030F91EF908B
:100F20000895CF92DF92EF920F931F93CF93DF93A9
:100F3000CDB7DEB7EC970FB6F894DEBF0FBECDBFCE
:100F4000FE0131968CE3DF011D928A95E9F700E0FE
:100F500010E002C000E010E00E94300C6C0101972C
:100F6000C9F70E94FD0B0E94180CF8013197EE0F93
:100F7000FF1F21E030E02C0F3D1FE20FF31F918394
:100F800080830F5F1F4F8FE39FE10197F1F700C050
:100F900000000E31110504F3F901AE01435C5F4F0F
:100FA00080E090E021913191820F931F4E175F07EF
:100FB000C9F76EE170E00E947811CB01895C91095C
:100FC000803A910530F584E091E00E940404EE241B
:100FD000E39400E121E64CE064E184E091E00E94CA
:100FE000500523E435E042E063E284E091E00E94B2
:100FF000420484E091E00E94C5039FEFA9E7BFE3AC
:101000009150A040B040E1F700C00000C12CD12CAD
:1010100058C0CB01895691408837910520F584E06E
:1010200091E00E940404EE24E39400E121E64CE008
:1010300064E184E091E00E94500529E435E042E05B
:1010400063E284E091E00E94420484E091E00E9427
:10105000C5032FEF39E78FE3215030408040E1F79F
:1010600000C000002EC0615E71406A3A710540F513
:1010700084E091E00E940404EE24E39400E121E680
:101080004CE064E184E091E00E94500527E535E002
:1010900042E063E284E091E00E94420484E091E057
:1010A0000E94C5039FEFA9E7BFE39150A040B04065
:1010B000E1F700C000006894CC24C1F8D12C01C035
:1010C00002C08C2D9D2DEC960FB6F894DEBF0FBE9E
:1010D000CDBFDF91CF911F910F91EF90DF90CF9017
:1010E0000895CF93DF93CDB7DEB72E970FB6F89460
:1010F000DEBF0FBECDBF87E0E3E6F5E0DE0111966F
:1011000001900D928A95E1F787E0E3E6F5E0DE01D4
:10111000189601900D928A95E1F79E012F5F3F4F3F
:1011200040E06FE084E091E00E9442049E01285F6D
:101130003F4F40E06CE484E091E00E944204209143
:101140009F05205D40E062E384E091E00E940D0491
:1011500020919E05205D40E06FE684E091E00E94D2
:101160000D042E960FB6F894DEBF0FBECDBFDF91F3
:10117000CF9108951816190614F0019608959C0150
:10118000265F3F4F2F33310514F0019708959C01DE
:101190002B5F3F4F2617370714F401960895621707
:1011A00073070CF401970895EF92FF920F931F932A
:1011B000CF93DF937C018B01EA010E94300C0197F1
:1011C000F1F4C801895791098D3F9140C0F485E43D
:1011D000E81682E0F8069CF0CE010F96880F991F62
:1011E000880F991F880F991F0817190714F4219762
:1011F00006C0805B9F4F801791070CF42196CE01AB
:10120000DF91CF911F910F91FF90EF900895EF9292
:10121000FF920F931F93CF93DF937C018B01EA0121
:101220000E94300C0197F1F4C801895791098D3F54
:101230009140C0F48CE7E81681E0F8069CF4CE01FA
:101240000F96880F991F880F991F880F991F0817ED
:10125000190714F4219706C0805B9F4F80179107F0
:101260000CF42196CE01DF91CF911F910F91FF9049
:10127000EF900895893621E092071CF06F5F7F4F51
:1012800005C08C32914014F46150710962307105CF
:1012900014F46F5F7F4F6333710514F0615071096F
:1012A000CB010895EF92FF920F931F93CF93DF939B
:1012B000D82FC62F142FF22E84E091E00E94040450
:1012C0000E94E7060E94710801E023E04F2D612F84
:1012D00084E091E00E948205EE24E3940BE023E099
:1012E0004D2F62E084E091E00E940D0523E04C2F39
:1012F0006AE784E091E00E940D0584E091E00E949D
:10130000C503DF91CF911F910F91FF90EF9008954A
:10131000219AE0E8F0E0808180648083A1E8B0E079
:101320008C9189608C9388EE93E0909389008093F0
:1013300088002FEF80E792E0215080409040E1F755
:1013400000C0000080818F7B80830895EF92FF9220
:101350000F931F93CF937C018B01E1EAF5E0C081ED
:101360008281C80FC08323818181820F8183948110
:10137000382F390FC90F891711F03F3340F02195ED
:101380002093A4050E94880928982A985F9AE1EA88
:10139000F5E06081462F50E0248130E08AE790E05C
:1013A000821B930B481759070CF458C08091A20573
:1013B00090E0F70131978E179F070CF44FC07BE048
:1013C000E70EF11CE816F9060CF04FC047C020E00C
:1013D00001C021E08091A20590E0A801415051098F
:1013E00084179507C4F1055F1F4F0817190784F587
:1013F00032C0E1EAF5E082818195828363506083A7
:101400000E94880928982A9A5F980CC0E1EAF5E0C2
:101410008281819582836D5F60830E94880928980C
:101420002A9A5F98CE3740F080919F058F5F809316
:101430009F0581E090E002C080E090E0C330E0F4DE
:1014400080919E058F5F80939E0581E090E014C09F
:101450002223E1F2CECF2111CCCFE4CF2B5F3F4F3F
:10146000241735070CF0B3CFDDCF2B5F3F4F241788
:1014700035070CF4BECFADCFCF911F910F91FF90E8
:10148000EF900895CF93DF93EC0122E636E042E03F
:1014900050E061E070E00E94181288819981DF912C
:1014A000CF91089587B187B94498ECE7F0E0808147
:1014B00080648083808184608083EAE7F0E08081BB
:1014C0008068808380818760808380818062808360
:1014D000808180648083EBE7F0E08081887F808377
:1014E000EAE8F5E02EE935E0A8E7B0E08D919C91BF
:1014F000119781939193E217F307C1F78AE895E07A
:101500000E94420A0895EF920F9384E091E00E94B6
:101510000404EE24E39400E121E64CE064E184E07D
:1015200091E00E9450052AE635E042E063E284E063
:1015300091E00E94420421E64CE264E184E091E003
:101540000E94500524E735E046E063E284E091E044
:101550000E94420484E091E00E94C5030F91EF9045
:101560000895CF93DF9300D000D0CDB7DEB70E94AF
:101570006B060E9486060E94BB060E944C072FEF56
:1015800083ED90E3215080409040E1F700C00000DF
:101590000E9491078C017894C12CD12C1C821B8253
:1015A0001A8219820F2EFBE12F2EF02D312C0F2ED7
:1015B000FBE1EF2EF02DF12C0F2EFBE14F2EF02D45
:1015C000512C0F2EFCE78F2EF5E09F2EF02D0F2EC5
:1015D000FBE16F2EF02D712C0F2EF1EAAF2EF5E00E
:1015E000BF2EF02D80919F05833008F0ABC0809115
:1015F0009E05833008F0A6C0C114D10409F094C040
:1016000001301105C1F10230110509F456C0011570
:10161000110509F082C00E94300C019741F40E942C
:10162000FD0B9A8389830E94180C9C838B834E2D1B
:101630005F2D6B817C8189819A810E94D408E82E7C
:10164000F92EF501618170E0842D952D0E94BA0874
:10165000482E592E6E2D7F2D0E94A6096C01F50192
:10166000218130E0408150E0642D752D8E2D9F2D1D
:101670000E94520952C00E94520A6E2D7F2D0E9474
:101680003A09E82EF92EF501618170E0842D952D3F
:101690000E94BA08482E592E6E2D7F2D0E94A60951
:1016A0006C01F501218130E0408150E0642D752D01
:1016B0008E2D9F2D0E94520930C00E94300C019740
:1016C00041F40E94FD0B9A8389830E94180C9C832D
:1016D0008B834E2D5F2D6B817C8189819A810E9445
:1016E000D408E82EF92E422D532D6B817C818981FF
:1016F0009A810E940709282E392E6E2D7F2D0E9477
:10170000A6096C01F501218130E0408150E0622D95
:10171000732D8E2D9F2D0E9452098FE39CE9019716
:10172000F1F700C000005ECF0E94BB069FEFE3ED23
:10173000F0E39150E040F040E1F700C00000C12C20
:10174000D12C50CF0E94830A2FEF89E698E12150D7
:1017500080409040E1F700C000000E94180C9C837C
:101760008B83815E91408A3A910508F03BCF84E0FB
:1017700091E00E940404EE24E39400E121E64CE0B1
:1017800064E184E091E00E94500524E735E042E006
:1017900063E284E091E00E94420484E091E00E94D0
:1017A000C503EFEFF9E72FE3E150F0402040E1F708
:1017B00000C000000E944C078FEF93EDE0E38150E2
:1017C0009040E040E1F700C000000E9491078C01CA
:1017D00010929F0510929E051F938F939F928F9258
:1017E0000E9442150F900F900F900F90262C372CCF
:1017F000E62CF72C462C572CF5CEECE7F0E0808158
:10180000807F808380818360808317B887B1836005
:1018100087B9419A88B1827F88B983EC99E00197B2
:10182000F1F700C000008091780090917900089550
:10183000ECE7F0E08081807F808317B887B18C600F
:1018400087B9439A88B1887F88B983EC99E001977A
:10185000F1F700C000008091780090917900089520
:1018600017B887B18C6087B9419A88B1827F88B9EF
:10187000ECE7F0E0808180648083808181608083F8
:10188000EAE7F0E0808180688083808187608083E0
:10189000808180628083808180648083EBE7F0E0D8
:1018A0008081887F808383EC99E00197F1F700C005
:1018B0000000209178003091790081E090E0253F90
:1018C000314010F080E090E008955058BB27AA27DF
:1018D0000E947D0C0C94980D0E948A0D38F00E9495
:1018E000910D20F039F49F3F19F426F40C94870DE4
:1018F0000EF4E095E7FB0C94810DE92F0E94A90DF1
:1019000058F3BA17620773078407950720F079F434
:10191000A6F50C94CB0D0EF4E0950B2EBA2FA02D4E
:101920000B01B90190010C01CA01A0011124FF278C
:10193000591B99F0593F50F4503E68F11A16F04087
:10194000A22F232F342F4427585FF3CF4695379586
:101950002795A795F0405395C9F77EF41F16BA0B4B
:10196000620B730B840BBAF09150A1F0FF0FBB1FF9
:10197000661F771F881FC2F70EC0BA0F621F731F42
:10198000841F48F4879577956795B795F7959E3F9F
:1019900008F0B0CF9395880F08F09927EE0F979530
:1019A000879508950E94E60C0C94980D0E94910D65
:1019B00058F00E948A0D40F029F45F3F29F00C9402
:1019C000810D51110C94CC0D0C94870D0E94A90D22
:1019D00068F39923B1F3552391F3951B550BBB275E
:1019E000AA2762177307840738F09F5F5F4F220FA3
:1019F000331F441FAA1FA9F335D00E2E3AF0E0E89A
:101A000032D091505040E695001CCAF72BD0FE2FE3
:101A100029D0660F771F881FBB1F26173707480777
:101A2000AB07B0E809F0BB0B802DBF01FF2793582F
:101A30005F4F3AF09E3F510578F00C94810D0C9465
:101A4000CC0D5F3FE4F3983ED4F386957795679588
:101A5000B795F7959F5FC9F7880F911D9695879564
:101A600097F90895E1E0660F771F881FBB1F621783
:101A700073078407BA0720F0621B730B840BBA0B41
:101A8000EE1F88F7E0950895E89409C097FB3EF4AF
:101A900090958095709561957F4F8F4F9F4F9923BB
:101AA000A9F0F92F96E9BB279395F6958795779539
:101AB0006795B795F111F8CFFAF4BB0F11F460FFF9
:101AC0001BC06F5F7F4F8F4F9F4F16C0882311F051
:101AD00096E911C0772321F09EE8872F762F05C065
:101AE000662371F096E8862F70E060E02AF09A9500
:101AF000660F771F881FDAF7880F9695879597F9F5
:101B0000089597F99F6780E870E060E008959FEF7F
:101B100080EC089500240A94161617061806090684
:101B2000089500240A941216130614060506089553
:101B3000092E0394000C11F4882352F0BB0F40F4DB
:101B4000BF2B11F460FF04C06F5F7F4F8F4F9F4F1B
:101B5000089557FD9058440F551F59F05F3F71F09D
:101B60004795880F97FB991F61F09F3F79F0879504
:101B70000895121613061406551FF2CF4695F1DF8D
:101B800008C0161617061806991FF1CF869571051D
:101B9000610508940895E894BB2766277727CB0151
:101BA00097F908950E94D70D08F48FEF0895990FC3
:101BB0000008550FAA0BE0E8FEEF16161706E80717
:101BC000F907C0F012161306E407F50798F0621B38
:101BD000730B840B950B39F40A2661F0232B242B0D
:101BE000252B21F408950A2609F4A140A6958FEF2C
:101BF000811D811D0895A0E1B0E0E1E0FEE00C94BC
:101C00008C117C011B016A01FC0117821682838101
:101C100081FF44C39E012F5F3F4F3901F70193813C
:101C2000F10193FD859193FF81911F01882309F4B0
:101C300031C3853239F493FD859193FF81911F0162
:101C4000853239F4B70190E00E940615560165010E
:101C5000E5CF10E0512C912CFFE1F915D8F08B3233
:101C600079F038F4803279F08332A1F4F92DF06103
:101C70002EC08D3261F0803369F4292D21602DC092
:101C8000392D3260932E892D8460982E2AC0E92D3B
:101C9000E86015C097FC2DC020ED280F2A3088F48D
:101CA00096FE06C03AE0139F200D1124122F19C092
:101CB0008AE0589E200D1124522EE92DE0629E2EBE
:101CC00010C08E3231F496FCE5C2F92DF0649F2EDF
:101CD00008C08C3621F4292D2068922E02C0883647
:101CE00041F4F10193FD859193FF81911F018111D1
:101CF000B3CF9BEB980F933020F4992D9061805EC9
:101D000007C09BE9980F933008F066C1992D9F7E1C
:101D100096FF16E09F73992E853619F49064992EDC
:101D200008C0863621F4392F3068932E02C0111175
:101D3000115097FE07C01C3350F444244394410EC5
:101D400027E00BC0183038F027E017E005C027E087
:101D50009CE3492E02C0212F412C560184E0A80E9D
:101D6000B11CF6016081718182819381042DA301F0
:101D70000E9418146C01F981FC87F0FF02C0F3FF88
:101D800006C091FC06C092FE06C000E205C00DE24E
:101D900003C00BE201C000E08C858C7019F00111CA
:101DA0005AC29BC297FE10C04C0CFC85F4FF04C0C5
:101DB0008A81813309F44A94141474F528E02415B7
:101DC00078F588E0482E2CC096FC2AC0812F90E040
:101DD0008C159D059CF03CEFC3163FEFD30674F0C5
:101DE000892D8068982E0AC0E2E0F0E0EC0FFD1F1C
:101DF000E10FF11D8081803319F411501111F4CFDE
:101E000097FE0EC044244394410E812F90E0C816E3
:101E1000D9062CF41C1904C04424439401C010E0DA
:101E200097FE06C01C141D0434F4C601019605C0BB
:101E300085E090E002C081E090E00111019611235D
:101E400031F0212F30E02F5F3F4F820F931F252D60
:101E500030E08217930714F4581A01C0512C892DD1
:101E6000897049F4552039F0B70180E290E00E9472
:101E700006155A94F7CF002329F0B701802F90E080
:101E80000E94061593FC09C0552039F0B70180E384
:101E900090E00E9406155A94F7CF97FE4CC0460179
:101EA000D7FE02C0812C912CC60188199909F30133
:101EB000E80FF91FFE87ED87960124193109388B49
:101EC0002F87012F10E01195019511093FEF83161F
:101ED000930629F4B7018EE290E00E940615C8141B
:101EE000D9044CF08F8598898815990524F4ED85DF
:101EF000FE85818101C080E3F1E08F1A91082D8574
:101F00003E852F5F3F4F3E872D87801691062CF030
:101F1000B70190E00E940615D9CFC814D90441F446
:101F20009A81963320F4953319F43C8534FF81E38C
:101F3000B70190E04EC08A81813319F09C859F7E65
:101F40009C87B70190E00E940615111105C094FC12
:101F500018C085E690E017C0B7018EE290E00E94BD
:101F600006151E5F82E001E0080FF301E80FF11D86
:101F70008081B70190E00E940615802F0113F3CFF6
:101F8000E6CF85E490E0B7010E940615D7FC06C0B5
:101F9000C114D10441F4EC85E4FF05C0D194C1948F
:101FA000D1088DE201C08BE2B70190E00E940615D6
:101FB00080E32AE0C216D1042CF08F5FFAE0CF1A3A
:101FC000D108F7CFB70190E00E940615B701C6010E
:101FD000C0960E94061554C1833631F0833779F0DC
:101FE000833509F056C020C0560132E0A30EB11C63
:101FF000F6018081898301E010E0630112C056017F
:10200000F2E0AF0EB11CF601C080D18096FE03C095
:10201000612F70E002C06FEF7FEFC6010E94FB14DA
:102020008C01F92DFF7714C0560122E0A20EB11CDD
:10203000F601C080D18096FE03C0612F70E002C01F
:102040006FEF7FEFC6010E94F0148C01F92DF0684C
:102050009F2EF3FD1AC0852D90E008171907A8F4EC
:10206000B70180E290E00E9406155A94F4CFF60181
:1020700097FC859197FE81916F01B70190E00E94D6
:10208000061551105A94015011090115110579F7DF
:10209000F7C0843611F0893661F5560197FE09C004
:1020A00024E0A20EB11CF6016081718182819381CE
:1020B0000AC0F2E0AF0EB11CF60160817181072EFB
:1020C000000C880B990BF92DFF769F2E97FF09C006
:1020D00090958095709561957F4F8F4F9F4FF068D9
:1020E0009F2E2AE030E0A3010E945815C82EC61882
:1020F0003FC0092D853721F40F7E2AE030E01DC056
:10210000097F8F3691F018F4883559F0C3C08037B5
:1021100019F0883711F0BEC0006104FF09C00460E7
:1021200007C094FE08C0066006C028E030E005C085
:1021300020E130E002C020E132E0560107FF09C093
:1021400084E0A80EB11CF6016081718182819381C7
:1021500008C0F2E0AF0EB11CF6016081718180E031
:1021600090E0A3010E945815C82EC6180F77902E34
:1021700096FE0BC0092D0E7FC11650F494FE0AC0C6
:1021800092FC08C0092D0E7E05C0DC2C092D03C071
:10219000DC2C01C0D12E04FF0DC0FE01EC0DF11DA1
:1021A0008081803311F4097E09C002FF06C0D394F8
:1021B000D39404C0802F867809F0D39403FD11C016
:1021C00000FF06C01C2DD51480F4150D1D190DC07F
:1021D000D51458F4B70180E290E00E940615D3941C
:1021E000F7CFD51410F45D1801C0512C04FF10C0B6
:1021F000B70180E390E00E94061502FF17C001FDC1
:1022000003C088E790E002C088E590E0B7010CC009
:10221000802F867859F001FF02C08BE201C080E276
:1022200007FD8DE2B70190E00E940615C11638F453
:10223000B70180E390E00E9406151150F7CFCA94D1
:10224000F301EC0DF11D8081B70190E00E940615AD
:10225000C110F5CF15C0F4E0F51560F584E0581A0B
:1022600093FE1FC0011127C02C8523FF2AC008E65A
:1022700010E0392D3071932EF8018491811124C022
:10228000552009F4E4CCB70180E290E00E940615E5
:102290005A94F6CFF7018681978126C08FEF9FEF82
:1022A00023C0B70180E290E00E9406155A945110B5
:1022B000F8CFD8CF512CB701802F90E00E9406159F
:1022C000D3CF0CE610E0D5CF91108052B70190E04B
:1022D0000E9406150F5F1F4FCFCF23E0251510F486
:1022E00083E0BDCF512CC0CF6096E2E10C94A811E1
:1022F00097FB072E16F4009407D077FD09D00E94B3
:10230000C31107FC05D03EF4909581959F4F089529
:10231000709561957F4F08952F923F924F925F92F3
:102320006F927F928F929F92AF92BF92CF92DF92E5
:10233000EF92FF920F931F93CF93DF93CDB7DEB74A
:10234000CA1BDB0B0FB6F894DEBF0FBECDBF0994DE
:102350002A88398848885F846E847D848C849B8435
:10236000AA84B984C884DF80EE80FD800C811B8143
:10237000AA81B981CE0FD11D0FB6F894DEBF0FBE72
:10238000CDBFED010895AA1BBB1B51E107C0AA1FD9
:10239000BB1FA617B70710F0A61BB70B881F991F06
:1023A0005A95A9F780959095BC01CD010895DC015F
:1023B000FB018C9190819D9381934150510914169A
:1023C0001506BCF30895A0E0B0E0E9EEF1E10C944D
:1023D00096117C016B01D42FC52F8901F901099554
:1023E0006D2F7C2F97FF10C0C601F801099597FF4C
:1023F00002C0C60118C06D2F7C2FC701F8010995D6
:1024000097FD0FC0C7010FC0C601F8010995181646
:1024100019067CF36D2F7C2FC701F801099597FDF4
:10242000F1CF8D2F9C2FCDB7DEB7E8E00C94B21121
:10243000AAE0B0E0EEE1F2E10C948C118C017B019A
:102440005A874987690129853A85200F311F3A83C8
:10245000298337E0E316F10470F569807A804985B5
:102460005A85E49E5001E59EB00CF49EB00C1124F8
:10247000A00EB11E6A147B0408F07AC173010E1518
:102480001F0528F089859A85680E791EF3CF4701CC
:10249000E985FA858E1A9F0AB701C401F6010995EC
:1024A000181619067CF749855A85B401C7010E94A0
:1024B000D7117401E4CFC7019695879529853A8590
:1024C000829F5001839FB00C929FB00C1124A00EEC
:1024D000B11EA701415051095C834B8357E0E516BB
:1024E000F10409F44CC08B819C81829F3001839F51
:1024F000700C929F700C1124600E711E99E2E91607
:10250000F104A8F1C70143E0969587954A95E1F754
:10251000829F4001839F900C929F900C1124140184
:10252000220C331CA801420D531DB801680D791D02
:102530009601C8010E94E3112C01A501480D591D07
:102540009194819491089601B501C501880D991D5A
:102550000E94E3115C01B301680D791D9601A3018E
:10256000C301821993090E94E3113C0101C02801B3
:102570009601A301B501C2010E94E3115C014985E6
:102580005A85B501C8010E94D71169807A802B81D4
:102590003C8149855A85249FF001259FF00D349F89
:1025A000F00D1124FE83ED835F01A00EB11E460DD8
:1025B000571D5C834B83250113011A8219828B807E
:1025C0009C8089859A85881A990AA814B90408F408
:1025D00050C0B801C401F601099518161906C4F1D6
:1025E000892B71F449855A85B401C1010E94D71124
:1025F00089859A85280E391EE1E0F0E0FA83E983A7
:102600002B813C8149855A85240F351F3C832B83C0
:10261000D6CFB801C501F6010995950149855A85BE
:10262000241B350B38872F8397FD16C0892B71F437
:1026300049855A85B201C5010E94D71129853A857D
:10264000421A530A41E050E05A834983AF80B8846C
:10265000A814B904F0F60DC049855A85B501C40126
:102660000E94D711AF80B88441E050E05A8349837B
:10267000C7CF89819A81892B09F44FC06D807E80F4
:1026800029853A85620E731E600E711E7401E21870
:10269000F308A101401B510BE416F5060CF4A70149
:1026A0001416150634F4B401641B750BC8010E949E
:1026B000D711A2014A195B095A01A301441955090E
:1026C00089859A85481B590BA416B50608F4A501FF
:1026D0001416150634F4B301641B750BC4010E9473
:1026E000D711E985FA85EE15FF0548F4C701BF014A
:1026F0000E94C3119601AF01C8010E9418122985DA
:102700003A852A153B05A0F583010A191B09C50165
:10271000B9010E94C3117B0196CEE985FA85EE9E30
:102720005001EF9EB00CFE9EB00C1124A00EB11E05
:102730006A147B04E8F473010E151F0528F08985DF
:102740009A85680E791EF4CF4701E985FA858E1ABD
:102750009F0AB701C401F6010995181619067CF7FE
:1027600049855A85B401C7010E94D7117401E4CF8D
:102770002A96E2E10C94A8118F929F92AF92BF9299
:10278000CF92DF92EF92FF92CF93DF93EC016881BB
:1027900079818A819B81611571058105910521F4FB
:1027A00064E279ED8BE597E02DE133EF41E050E015
:1027B0000E94B61549015A019B01AC01A7EAB1E498
:1027C0000E94D5156B017C01ACEEB4EFA50194011C
:1027D0000E94E315DC01CB018C0D9D1DAE1DBF1DBC
:1027E000B7FF03C00197A109B04888839983AA83E2
:1027F000BB839F77DF91CF91FF90EF90DF90CF90D9
:10280000BF90AF909F908F9008950E94BC13089541
:1028100080E091E00E94BC130895A0E0B0E08093B6
:10282000000190930101A0930201B0930301089568
:10283000283008F027E03327DA01990F311D87FD92
:10284000916000966105710539F432602E5F3D9309
:1028500030E32A95E1F708959F3F30F08038710505
:10286000610509F03C5F3C5F3D93913008F0806862
:10287000911DDF93CF931F930F93FF92EF92192F28
:10288000987F9695E92F96959695E90FFF27E65341
:10289000FF4F99273327EE24FF24A701E701059076
:1028A0000894079428F4360FE71EF81E491F511D9F
:1028B000660F771F881F991F0694A1F7059007944C
:1028C00028F4E70EF81E491F561FC11D770F881FF9
:1028D000991F661F0694A1F70590079428F4F80E37
:1028E000491F561FC71FD11D880F991F661F771FCD
:1028F0000694A1F70590079420F4490F561FC71FAF
:10290000D81F990F661F771F881F0694A9F7849117
:102910001095177041F0D695C79557954795F79440
:10292000E7941A95C1F7E0E7F0E0689415901591E7
:1029300035916591959105907FE27395E118F10AC3
:10294000430B560BC90BD009C0F7E10CF11E431F16
:10295000561FC91FD01D7EF4703311F48A95E6CF3F
:10296000E894015030F0080F0AF40027021708F429
:10297000202F2395022F7A3328F079E37D932A952F
:10298000E9F710C07D932A9589F606949795679587
:10299000379517951794E118F10A430B560BC90B9D
:1029A000D00998F023957E9173957A3308F070E3FF
:1029B0007C932013B8F77E9170617D9330F08395FE
:1029C00071E37D9370E32A95E1F71124EF90FF9076
:1029D0000F911F91CF91DF91992787FD90950895D1
:1029E000FC010590615070400110D8F780959095DA
:1029F0008E0F9F1F0895FC016150704001900110DF
:102A0000D8F7809590958E0F9F1F08950F931F9371
:102A1000CF93DF93FB01238121FD03C08FEF9FEF55
:102A20002CC022FF16C04681578124813581421770
:102A3000530744F4A081B1819D012F5F3F4F318343
:102A400020838C93268137812F5F3F4F37832683E6
:102A500014C08B01EC01FB010084F185E02D099588
:102A6000892BE1F6D80116968D919C9117970196C6
:102A700017969C938E931697CE01DF91CF911F915D
:102A80000F910895A0E0B0E0E8E4F5E10C949C110A
:102A9000AE014B5F5F4FFA0161917191AF0180917F
:102AA000AA059091AB050E94FB0DE2E00C94B811D1
:102AB000FA01AA27283051F1203181F1E8946F936F
:102AC0006E7F6E5F7F4F8F4F9F4FAF4FB1E03ED015
:102AD000B4E03CD0670F781F891F9A1FA11D680FB3
:102AE000791F8A1F911DA11D6A0F711D811D911DE6
:102AF000A11D20D009F468943F912AE0269F11245B
:102B00003019305D3193DEF6CF010895462F4770BE
:102B1000405D4193B3E00FD0C9F7F6CF462F4F7019
:102B2000405D4A3318F0495D31FD4052419302D077
:102B3000A9F7EACFB4E0A69597958795779567951D
:102B4000BA95C9F700976105710508959B01AC011D
:102B50000A2E06945795479537952795BA95C9F744
:102B6000620F731F841F951FA01D0895052E97FBEC
:102B70001EF400940E94CD1557FD07D00E94E81561
:102B800007FC03D04EF40C94CD155095409530952C
:102B900021953F4F4F4F5F4F0895909580957095C9
:102BA00061957F4F8F4F9F4F08950E940A16A59FF2
:102BB000900DB49F900DA49F800D911D1124089538
:102BC000B7FF0C94D5150E94D515821B930B089561
:102BD000A1E21A2EAA1BBB1BFD010DC0AA1FBB1F21
:102BE000EE1FFF1FA217B307E407F50720F0A21B93
:102BF000B30BE40BF50B661F771F881F991F1A9400
:102C000069F760957095809590959B01AC01BD0129
:102C1000CF010895A29FB001B39FC001A39F700D83
:102C2000811D1124911DB29F700D811D1124911DD4
:062C30000895F894FFCFA7
:102C3600010000007F7F7F7F717F717F7F7F7F7FB5
:102C46007E7F7A7B7F7F7F7F7F7F7F7F7F717F7FA6
:102C5600717F7F7F0000606060787F7F7F7F7F600D
:102C66006060606060707078783E3F1F1F0F0701DC
:102C7600000000000000000000000000000000004E
:102C8600000000000000000000000000000000003E
:102C9600000000000000000000000000000000002E
:102CA600000000000000000000000000000000001E
:102CB60000000000FFFFF0F0F0F0F0F0F0F0F0F0B0
:102CC600F1F3F7FFFFFFF7F1F0F0F0F0F0F0F0F0BE
:102CD600F0F0F0FF000000000000FFFFFFFFFF0024
:102CE6000000000000000000000083FFFFFFFFFF60
:102CF6003C0001010303030303030101000000007C
:102D0600010101010303030303000001010303039F
:102D16000303030100000000000001010103030397
:102D26000303000000010103030303030101000084
:102D360000000000E0FF03000103070F1E3E7FFFB7
:102D4600FFFF9F0F0F8FFFFFFF7F3E1E0F07030141
:102D560000013FFC000000000000FFFFFFFFFF1C1A
:102D66001C1C1C1C1C1C1C3C78F8F8F8F1EFDFFF3F
:102D76007FFFE1C18181818181C1E1F9FFFF7F1F71
:102D8600878080C0FFFFFFFFFF78F0E0C0C0C0C0B3
:102D9600C0E0FFFFFFFF3F070000808080FFFFFFCE
:102DA600FFFF3C78F0E0C0C0C0C0E0F0FFFFFF7F4F
:102DB6001F0000000080E0F8FCFFFF3F1F1E3CF8EC
:102DC600F0E0C08000C0E0F0F83C1E1F3FFFFFFCB3
:102DD600F8E08000000000000000FFFFFFFFFF009A
:102DE600000000000000000000000000FEFFFFFFE2
:102DF600FFBF81808080808080808080808080800E
:102E060080000000FFFFFFFFFF0000000000000041
:102E16000000FFFFFFFFFFFF0000000000FFFFFFB5
:102E2600FFFF00000000000000000000FFFFFFFFA2
:102E3600FF00000000000000000080C0E0703018B5
:102E46000C0C0606060C0C18183060E0C08000005A
:102E5600000000000000060E0E3EFEFEFEFEFE7E98
:102E66000E0E060000000000000000000080E0F0EA
:102E7600F8FCFC7E3E1E0E0E0E060E0E0E1C38785C
:102E8600E6060E1EFEFEFEFEFE0E0E060000000606
:102E9600060EFEFEFEFEFEFE0E0E06060EFEFEFEF4
:102EA600FEFE7E0E0E06000000060E0EFEFEFEFE66
:102EB600FE1E0E06000000000000000000000000DC
:102EC60000000000000000000000010100000000FA
:102ED60000000000000000000000000000000001EB
:102EE60001010000000000000101000000000000D8
:102EF60000000000000000000101010000000000C9
:102F060000000101000000000000000000000000B9
:102F160000000000000000000000000000000000AB
:102F2600000000000000000000000000000000009B
:102F3600000000000000FFFFCECECECE001F1F1FF8
:102F460038381F1F1C383C1F0F00FFFF1C38381F66
:102F56001F07071F1F3B3B1F1F07071F1F3838FF91
:102F6600FFFF000F1F38381CFFFF000F1F1F3B3BE2
:102F76001F1F070F1F1F3838FFFFFF0000000078D4
:102F8600FCFCCECFC7C3181F1F03031F1F181E1F2D
:102F96003F3B1B0118FFFF1818000F1F3B3B3B1F51
:102FA6000F001F1F1C383C1F1F18383F1F07001F2C
:102FB6003F3B3B190000F0F07070707000F0F0F0CD
:102FC6000000F0F0000000F0F000F0F0F07070F09B
:102FD600E080C0E0F07030707000C0E0F07070E02B
:102FE600F0F000E0F0707070F0F000C0E0F07030CB
:102FF600707000C0E0F07070F0F0F000000000604B
:1030060070703070F0E00000EEFEFCE000007070C2
:1030160030F0F0E000E0F0707000E0F070303070FA
:103026006000F0F0000000F0F00000F0F0F06070DA
:1030360030B0F0E0030002000100000007000600C7
:103046000500040000000001000000000000590611
:10305600000000000002000000004706000000001B
:10306600506C656173652053656C656374204D6FA4
:10307600646500546F75636800416363656C6572CF
:103086006F6D657465720054776F20506C61796559
:1030960072730053636F72653A0047616D65204F26
:1030A60076657200526573746172740067616D654E
:0A30B6005F6D6F6F643A202564001F
:00000001FF
