:100000000C9433030C9450030C9450030C94500341
:100010000C9450030C9450030C9450030C94500314
:100020000C9450030C9450030C9450030C94500304
:100030000C9450030C9450030C9450030C945003F4
:100040000C9450030C9450030C9450030C945003E4
:100050000C9450030C9450030C9450030C945003D4
:100060000C9450030C9450036E616E00696E660030
:1000700000407A10F35A00A0724E18090010A5D45F
:10008000E80000E87648170000E40B54020000CABC
:100090009A3B000000E1F505000080969800000002
:1000A00040420F000000A086010000001027000061
:1000B0000000E803000000006400000000000A00E7
:1000C000000000000100000000002C76D888DC67EA
:1000D0004F0823DFC1DFAE59E1B1B796E5E3E45342
:1000E000C63AE651997696E8E6C28426EB898C9B5F
:1000F00062ED407C6FFCEFBC9C9F40F2BAA56FA5FF
:10010000F490055A2AF75C936B6CF9676DC11BFC80
:10011000E0E40D47FEF520E6B500D0ED902E03009B
:10012000943577050080841E080000204E0A0000E8
:1001300000C80C333333330F986E12831141EF8DA7
:100140002114893BE65516CFFEE6DB18D1844B38E7
:100150001BF77C1D901DA4BBE424203284725E2218
:100160008100C9F124ECA1E53D2700000000007CDE
:10017000DAF2DA7C7CD6F2D67C387C3E7C38183CCD
:100180007E3C1838EABEEA38387AFE7A3800183CE5
:100190001800FFE7C3E7FF0018241800FFE7DBE7BC
:1001A000FF0C125C607064949E946402FEA0A0E058
:1001B00002FEA0A4FC5A3CE73C5AFE7C38381010E2
:1001C00038387CFE2844FE4428FAFA00FAFA609097
:1001D000FE80FE006691A95606060606062945FF22
:1001E000452910207E201008047E04081010543881
:1001F000101038541010780808080830783078301B
:100200000C1C7C1C0C60707C706000000000000006
:1002100000FA000000E000E00028FE28FE28245438
:10022000FE5448C4C81026466C926A040A0010E0C6
:10023000C000003844820000824438005438FE3840
:100240005410107C101000010E0C00101010101033
:10025000000006060004081020407C8A92A27C0060
:1002600042FE02004E92929262848292B2CC182890
:1002700048FE08E4A2A2A29C3C5292928C828488FE
:1002800090E06C9292926C629292947800002800B6
:100290000000022C0000001028448228282828286A
:1002A000008244281040809A90607C82BA9A723E04
:1002B0004888483EFE9292926C7C82828244FE8202
:1002C00082827CFE92929282FE909090807C8282CA
:1002D0008ACEFE101010FE0082FE8200040282FC14
:1002E00080FE10284482FE02020202FE403840FED8
:1002F000FE201008FE7C8282827CFE909090607CC2
:10030000828A847AFE90989462649292924CC08021
:10031000FE80C0FC020202FCF8040204F8FC021C8D
:1003200002FCC6281028C6C0201E20C0869A92B2A1
:10033000C200FE828282402010080400828282FE77
:100340002040804020020202020200C0E0100004AF
:100350002A2A1E02FE1422221C1C222222141C22E3
:100360002214FE1C2A2A2A1800107E9040182525E7
:10037000391EFE1020201E0022BE0200040202BC14
:1003800000FE081422000082FE02003E201E201EF5
:100390003E1020201E1C2222221C3F182424181844
:1003A0002424183F3E10202010122A2A2A2420201C
:1003B000FC22243C0202043E38040204383C020CB5
:1003C000023C2214081422320909093E22262A324C
:1003D0002200106C82000000EE000000826C100011
:1003E00040804020403C64C4643C78858586485CFD
:1003F0000202045E1C2A2AAA9A84AAAA9E82842A3D
:100400002A1E8284AA2A1E02042AAA9E0230784A40
:100410004E489CAAAAAA9A9C2A2A2A9A9CAA2A2AC4
:100420001A0000A23E820040A2BE420080A23E020C
:100430000F9424940F0F14A4140F3E2AAAA20004B0
:100440002A2A3E2A3E5090FE924C9292924C4C1296
:1004500012124C4C5212120C5C8282845E5C42027C
:10046000041E00B90505BE9C2222229CBC02020289
:10047000BC3C24FF2424127E92C266D4F43FF4D400
:10048000FF90946F0403117E90C0042A2A9E82007C
:100490000022BE820C1212524C1C0202445E005E0C
:1004A00050504EBEB0988CBE649494F414649494EE
:1004B00094640C12B202041C1010101010101010D2
:1004C0001CF40813355DF408142C5F0000DE0000F6
:1004D000102854284444285428105500AA00555583
:1004E000AA55AA55AA55AA55AA000000FF00080857
:1004F00008FF00282828FF000808FF00FF08080F51
:10050000080F2828283F002828EF00FF0000FF00E0
:10051000FF28282F203F2828E808F80808F808F8BE
:10052000282828F8000808080F00000000F808082C
:100530000808F8080808080F08000000FF08080865
:10054000080808080808FF08000000FF280000FF4E
:1005500000FF0000F808E800003F202F2828E808E6
:10056000E828282F202F0000FF00EF28282828281F
:100570002828EF00EF282828E8280808F808F82895
:1005800028282F2808080F080F0000F808F8000096
:1005900000F8280000003F2800000F080F0808FF9F
:1005A00008FF282828FF28080808F8000000000F86
:1005B00008FFFFFFFFFF0F0F0F0F0FFFFFFF0000F0
:1005C000000000FFFFF0F0F0F0F01C22221C223EA1
:1005D00054547C287E40406060407E407E40C6AAE5
:1005E0009282C61C22223C20027E04780460407E57
:1005F000404099A5E7A5993854925438324E804E20
:10060000320C52B2B20C0C121E120C3D465A62BC95
:100610007C929292007E8080807E54545454542266
:1006200022FA2222028A5222020222528A02000066
:10063000FF80C00701FF00001010D6D6106C486C78
:10064000246C60F090F060000018180000000808AA
:10065000000C02FF808000F88080780098B8E8489D
:10066000003C3C3C3C0011241FBECFEFD8E0DEBF75
:10067000CDBF15E0A0E0B1E0EAEFF0E202C00590E6
:100680000D92A637B107D9F725E0A6E7B5E001C07E
:100690001D92A538B207E1F70E9423080C947B1045
:1006A0000C9400005C9827E030E090E05D98AC018D
:1006B000022E02C0559547950A94E2F740FF02C00A
:1006C0005E9A01C05E985D9A2150310978F70895CD
:1006D000569A559A549A539A529A5A985B982FE977
:1006E00086E891E0215080409040E1F700C0000092
:1006F0005B9A83EA0E94520380EA0E94520380ECD4
:100700000E94520380E40E9452038CE20E94520332
:1007100083ED90E30197F1F700C000008EE20E94A4
:10072000520383ED90E30197F1F700C000008FE2E0
:100730000E94520383EC99E00197F1F700C000009A
:1007400086E20E94520308955C9A27E030E090E030
:100750005D98AC01022E02C0559547950A94E2F7C8
:1007600040FF02C05E9A01C05E985D9A2150310937
:1007700078F70895CF93C82F81E80E9452038C2FF9
:100780008F730E945203CF910895CF92DF92EF9220
:10079000FF920F931F93CF93DF930F2EF4E0EF2E72
:1007A000F5E0FF2EF02DEC010F2EF4E1CF2EF5E059
:1007B000DF2EF02DF7018081F2E0EF0EF11C806B4F
:1007C0000E94520380E00E94520380E10E94520383
:1007D00080EE0E9452038FEF0E94A4038E01005806
:1007E0001F4F89910E94A403C017D107D1F7E801D8
:1007F000CE14DF04F9F6DF91CF911F910F91FF9096
:10080000EF90DF90CF90089520E034E0FC01A90143
:10081000119241505040E1F7089530E0F901EE0F98
:10082000FF1FEE0FFF1FE20FF31FE659FE4F55E0CB
:10083000560F9C0170E8479F200D311D11249491A3
:10084000D901A60FB11D9C936F5F31966513F7CF49
:100850000895242F269526952695E62FF0E030E87A
:10086000239FE00DF11D1124E80FF91F477080E868
:1008700090E002C0959587954A95E2F79081892B83
:1008800080830895EF92FF920F931F93CF93DF938E
:100890007C01C62FD42FF9012081222371F08F0112
:1008A0000F5F1F4F4D2F6C2FC7010E940D04CB5FB0
:1008B000F80121918F012111F5CFDF91CF911F9187
:1008C0000F91FF90EF9008954F925F926F927F92F9
:1008D0008F929F92AF92BF92CF92DF92EF92FF9250
:1008E0000F931F93CF93DF936C01C62F122F30E02D
:1008F000261B3109C901992324F488279927821BD3
:10090000930B5C011C1730F4F42ED02F9C2FC12FB9
:10091000192F02C0F02ED42F81110FC0FD1618F42C
:100920008D2FDF2DF82E2E2D4D2F6C2FC6010E94FE
:100930002904DF5FFD16B8F75FC0802F90E0841BAD
:100940009109BC0122F466277727681B790B66237F
:1009500019F01C1770F450C01C1708F44DC02E2D50
:100960004D2F6C2FC6010E942904CF5F1C17B8F7CA
:1009700043C070E080E090E00E94B3092B013C018D
:10098000B5017727072E000C880B990B0E94B5093B
:100990009B01AC01C301B2010E9441092B013C0142
:1009A0000D2F812C912C5401A3019201C501B4019A
:1009B0000E94D5084B015C0120E030E040E05FE39D
:1009C0000E94410A88237CF0FD1610F4015001C0FA
:1009D0000F5F20E030E040E85FE3C501B4010E9412
:1009E000D4084B015C012E2D402F6C2FC6010E94B4
:1009F0002904CF5F1C17C0F6DF91CF911F910F9193
:100A0000FF90EF90DF90CF90BF90AF909F908F902E
:100A10007F906F905F904F9008958F929F92AF92CA
:100A2000BF92CF92DF92EF92FF920F931F93CF93DB
:100A3000DF936C01D62FF42E862F90E04C01820EAE
:100A4000911C88159905ACF01EC0CF2D2E2D4C2F72
:100A50006D2FC6010E942904CF5F8C2F90E0801774
:100A60009107A4F3DF5F8D2F90E0881599053CF086
:100A70000AC0A42EB12CC501800F911D8C01A016B7
:100A8000B1061CF3EFCFDF91CF911F910F91FF9033
:100A9000EF90DF90CF90BF90AF909F908F90089590
:100AA000BF92CF92DF92EF92FF920F931F93CF935B
:100AB000DF936C01162FF42ED22FC42FC00F0C2FF2
:100AC000262F0E946404D10F0F2D2D2F4F2D612F43
:100AD000C6010E9464040C2F2D2F4F2D6D2FC601CF
:100AE0000E9464042D2F4C2F612FC6010E946404C4
:100AF000DF91CF911F910F91FF90EF90DF90CF90FA
:100B0000BF9008956F927F928F929F92AF92BF9203
:100B1000CF92DF92EF92FF920F931F93CF93DF93C9
:100B2000EC01962E842EA22EF22E822F880F93E0B7
:100B3000E92EE81A142F121B202F412FCE010E94FC
:100B40002904202F412F692DCE010E9429041A2D3E
:100B5000180D202F412F692DCE010E942904202F2E
:100B6000412F692DCE010E942904D92CDA18202F9B
:100B7000482D6D2DCE010E9429041A2D190D202F0C
:100B8000482D612FCE010E942904202F482D6D2D64
:100B9000CE010E942904202F482D612FCE010E94F2
:100BA0002904B12C1A141B040CF062C0712C11E042
:100BB00080E090E0EE2044F48E2D870D0F2EF6E0BD
:100BC000EF2EF02DE80E09C08F199AE09E0DE92E48
:100BD00024E0829FE00C1124FA94692C611A202FE2
:100BE000D82CDF184D2D662DCE010E942904C92C6A
:100BF000C10E202F4D2D6C2DCE010E942904202FD7
:100C0000D82CDF0C4D2D662DCE010E942904202FFB
:100C10004D2D6C2DCE010E942904D82CD11A202FE5
:100C20004D2DC92CCF186C2DCE010E942904202FE8
:100C30004D2DD92CDF0C6D2DCE010E942904682C7E
:100C4000610E202F462D6C2DCE010E942904202FED
:100C5000462D6D2DCE010E942904812F012E000CFE
:100C6000990B1F5F24E0720E8A159B050CF4A2CF2E
:100C7000DF91CF911F910F91FF90EF90DF90CF9078
:100C8000BF90AF909F908F907F906F900895CF937B
:100C9000C82F8A3019F48DE00E944706E0ECF0E09E
:100CA000808185FFFDCFC093C60080E090E0CF91AA
:100CB0000895E0ECF0E080818823ECF78091C60095
:100CC00090E008951092C50087E68093C400E0ECA0
:100CD000F0E080818D7F808386E08093C20088E190
:100CE0008093C100EFE7F5E083E295E09383828390
:100CF00085E195E0918380830895579A5F988BB141
:100D00008BB984B1856084B985B18A7F85B985B195
:100D100085B90E9468038FEA0E94520380E20E9414
:100D2000BA0384E091E00E94C5032AEA36EE86E920
:100D300091E02150304080409040D9F7000084E09D
:100D400091E00E9404042FEF33E284EF2150304001
:100D50008040E1F700C00000809177058F5F8093AD
:100D600077050895EF920F93EE24E39400E02FE7C8
:100D700040E060E084E091E00E9464040FE320E042
:100D800040E060E084E091E00E9464042FE74FE3DC
:100D900060E084E091E00E9464042FE740E06FE7A8
:100DA00084E091E00E94640404E02FE340E06FE3FC
:100DB00084E091E00E9464040CE02FE348E06FE3DC
:100DC00084E091E00E94640404E12FE340E16FE3DA
:100DD00084E091E00E9464040CE12FE348E16FE3BA
:100DE00084E091E00E9464040FE32FE34BE36FE3A0
:100DF00084E091E00E94640407E32FE343E36FE3A0
:100E000084E091E00E9464040FE22FE34BE26FE381
:100E100084E091E00E94640407E22FE343E26FE381
:100E200084E091E00E9464040F91EF900895EF92A6
:100E30000F9321E335E040E065E084E091E00E941B
:100E40004204EE24E39400E121E64CE064E184E016
:100E500091E00E9450052DE335E042E063E284E03A
:100E600091E00E94420421E64CE164E184E091E0DB
:100E70000E94500523E435E044E063E284E091E021
:100E80000E94420421E64CE264E184E091E00E9489
:100E9000500521E535E046E063E284E091E00E9400
:100EA00042040F91EF900895CF93DF93CDB7DEB753
:100EB0002E970FB6F894DEBF0FBECDBF87E0EBE5EF
:100EC000F5E0DE01119601900D928A95E1F787E039
:100ED000EBE5F5E0DE01189601900D928A95E1F7B9
:100EE0009E012F5F3F4F40E06FE084E091E00E9461
:100EF00042049E01285F3F4F40E06CE484E091E0B3
:100F00000E94420420911405205D40E062E384E0E9
:100F100091E00E940D0420917605205D40E06FE68F
:100F200084E091E00E940D042E960FB6F894DEBF87
:100F30000FBECDBFDF91CF910895E8E7F5E02081A6
:100F40009281920F908343812181342F320F31831C
:100F50002481592F520F921B321719F0230F2F3370
:100F600030F0419540937B0528982A985F9A5A372C
:100F700028F1209179053BEF380F2317F8F08B5FAC
:100F80008217C8F41BC091E001C090E08091790500
:100F90002BEF260F821760F06B5F681748F0E8E7C9
:100FA000F5E082818195828328982A9A5F98089536
:100FB0009111F5CF0895953090F7E5CF953028F34E
:100FC00008951816190614F0019608959C01265FDD
:100FD0003F4F2F33310514F0019708959C012B5F8B
:100FE0003F4F2617370714F40196089562177307C9
:100FF0000CF401970895EF920F93CF93DF93D82FBE
:10100000C62F642F422F01E023E084E091E00E948C
:101010008205EE24E3940BE023E04D2F62E084E0B0
:1010200091E00E940D0523E04C2F6AE784E091E0F7
:101030000E940D0584E091E00E94C503DF91CF91ED
:101040000F91EF9008950E9462060E947D0684E051
:1010500091E00E9404040E94170784E091E00E943E
:10106000C503E8E7F5E08FE380838DE081830E948C
:101070006A0E81709078992324F401978E6F9F6F88
:10108000019680FD02C08FEF01C081E080937A0558
:101090000E946A0E81709078992324F401978E6FD4
:1010A0009F6F019680FD02C08FEF01C081E0E8E7ED
:1010B000F5E0838383E08483CBE1D0E00F2EFAE672
:1010C000AF2EF5E0BF2EF02D0F2EF2E6CF2EF5E07D
:1010D000DF2EF02D7F010E9454070E94B2060E946D
:1010E000A508019739F4DF92CF920E94A40F0F90C8
:1010F0000F900AC00E94A508892B31F4BF92AF92CD
:101100000E94A40F0F900F90BE01CE010E949D0778
:10111000F701018110E0B801CE010E94E107EC0166
:10112000F701408150E09801BC010E94FB07FFEFEE
:1011300023EF81E0F15020408040E1F700C0000043
:1011400084E091E00E940404C6CF17B887B18C6098
:1011500087B9419A88B1827F88B9ECE7F0E0808155
:1011600080648083808181608083EAE7F0E0808111
:1011700080688083808187608083808180628083B3
:10118000808180648083EBE7F0E08081887F8083CA
:10119000209178003091790081E090E0253F314046
:1011A00010F080E090E008955058BB27AA270E94D5
:1011B000EC080C94070A0E94F90938F00E94000A12
:1011C00020F039F49F3F19F426F40C94F6090EF43C
:1011D000E095E7FB0C94F009E92F0E94180A58F3F8
:1011E000BA17620773078407950720F079F4A6F50C
:1011F0000C943A0A0EF4E0950B2EBA2FA02D0B0199
:10120000B90190010C01CA01A0011124FF27591B4B
:1012100099F0593F50F4503E68F11A16F040A22F51
:10122000232F342F4427585FF3CF469537952795C2
:10123000A795F0405395C9F77EF41F16BA0B620BC1
:10124000730B840BBAF09150A1F0FF0FBB1F661F08
:10125000771F881FC2F70EC0BA0F621F731F841F4B
:1012600048F4879577956795B795F7959E3F08F071
:10127000B0CF9395880F08F09927EE0F9795879533
:1012800008950E9455090C94070A0E94000A58F01C
:101290000E94F90940F029F45F3F29F00C94F0090D
:1012A00051110C943B0A0C94F6090E94180A68F339
:1012B0009923B1F3552391F3951B550BBB27AA270F
:1012C00062177307840738F09F5F5F4F220F331F49
:1012D000441FAA1FA9F335D00E2E3AF0E0E832D011
:1012E00091505040E695001CCAF72BD0FE2F29D014
:1012F000660F771F881FBB1F261737074807AB07E6
:10130000B0E809F0BB0B802DBF01FF2793585F4F5A
:101310003AF09E3F510578F00C94F0090C943B0A8A
:101320005F3FE4F3983ED4F3869577956795B7953C
:10133000F7959F5FC9F7880F911D9695879597F947
:101340000895E1E0660F771F881FBB1F62177307C0
:101350008407BA0720F0621B730B840BBA0BEE1FD5
:1013600088F7E0950895E89409C097FB3EF49095BE
:101370008095709561957F4F8F4F9F4F9923A9F06E
:10138000F92F96E9BB279395F695879577956795FD
:10139000B795F111F8CFFAF4BB0F11F460FF1BC041
:1013A0006F5F7F4F8F4F9F4F16C0882311F096E9D4
:1013B00011C0772321F09EE8872F762F05C0662382
:1013C00071F096E8862F70E060E02AF09A95660F3B
:1013D000771F881FDAF7880F9695879597F90895F4
:1013E00097F99F6780E870E060E008959FEF80ECD8
:1013F000089500240A94161617061806090608957B
:1014000000240A9412161306140605060895092EE0
:101410000394000C11F4882352F0BB0F40F4BF2B4F
:1014200011F460FF04C06F5F7F4F8F4F9F4F08958F
:1014300057FD9058440F551F59F05F3F71F0479585
:10144000880F97FB991F61F09F3F79F0879508956A
:10145000121613061406551FF2CF4695F1DF08C089
:10146000161617061806991FF1CF869571056105A6
:1014700008940895E894BB2766277727CB0197F94E
:1014800008950E94460A08F48FEF0895990F000806
:10149000550FAA0BE0E8FEEF16161706E807F90746
:1014A000C0F012161306E407F50798F0621B730BE1
:1014B000840B950B39F40A2661F0232B242B252B62
:1014C00021F408950A2609F4A140A6958FEF811D05
:1014D000811D0895A0E1B0E0E0E7FAE00C94E70D8B
:1014E0007C011B016A01FC0117821682838181FF46
:1014F00044C39E012F5F3F4F3901F7019381F101F2
:1015000093FD859193FF81911F01882309F431C3D5
:10151000853239F493FD859193FF81911F018532C6
:1015200039F4B70190E00E94680F56016501E5CFDC
:1015300010E0512C912CFFE1F915D8F08B3279F0A5
:1015400038F4803279F08332A1F4F92DF0612EC0A5
:101550008D3261F0803369F4292D21602DC0392D41
:101560003260932E892D8460982E2AC0E92DE86080
:1015700015C097FC2DC020ED280F2A3088F496FE68
:1015800006C03AE0139F200D1124122F19C08AE0E3
:10159000589E200D1124522EE92DE0629E2E10C07F
:1015A0008E3231F496FCE5C2F92DF0649F2E08C00E
:1015B0008C3621F4292D2068922E02C0883641F401
:1015C000F10193FD859193FF81911F018111B3CFAB
:1015D0009BEB980F933020F4992D9061805E07C0AB
:1015E0009BE9980F933008F066C1992D9F7E96FF76
:1015F00016E09F73992E853619F49064992E08C0D1
:10160000863621F4392F3068932E02C01111115003
:1016100097FE07C01C3350F444244394410E27E046
:101620000BC0183038F027E017E005C027E09CE336
:10163000492E02C0212F412C560184E0A80EB11C76
:10164000F6016081718182819381042DA3010E9442
:101650007A0E6C01F981FC87F0FF02C0F3FF06C02F
:1016600091FC06C092FE06C000E205C00DE203C078
:101670000BE201C000E08C858C7019F001115AC298
:101680009BC297FE10C04C0CFC85F4FF04C08A81FD
:10169000813309F44A94141474F528E0241578F57C
:1016A00088E0482E2CC096FC2AC0812F90E08C1533
:1016B0009D059CF03CEFC3163FEFD30674F0892DD7
:1016C0008068982E0AC0E2E0F0E0EC0FFD1FE10F09
:1016D000F11D8081803319F411501111F4CF97FE60
:1016E0000EC044244394410E812F90E0C816D906C1
:1016F0002CF41C1904C04424439401C010E097FE4C
:1017000006C01C141D0434F4C601019605C085E012
:1017100090E002C081E090E001110196112331F0C8
:10172000212F30E02F5F3F4F820F931F252D30E098
:101730008217930714F4581A01C0512C892D89700F
:1017400049F4552039F0B70180E290E00E94680F1B
:101750005A94F7CF002329F0B701802F90E00E9420
:10176000680F93FC09C0552039F0B70180E390E081
:101770000E94680F5A94F7CF97FE4CC04601D7FEDF
:1017800002C0812C912CC60188199909F301E80F38
:10179000F91FFE87ED87960124193109388B2F87B1
:1017A000012F10E01195019511093FEF8316930663
:1017B00029F4B7018EE290E00E94680FC814D904A2
:1017C0004CF08F8598898815990524F4ED85FE8560
:1017D000818101C080E3F1E08F1A91082D853E855B
:1017E0002F5F3F4F3E872D87801691062CF0B70163
:1017F00090E00E94680FD9CFC814D90441F49A81AF
:10180000963320F4953319F43C8534FF81E3B70116
:1018100090E04EC08A81813319F09C859F7E9C8721
:10182000B70190E00E94680F111105C094FC18C028
:1018300085E690E017C0B7018EE290E00E94680F45
:101840001E5F82E001E0080FF301E80FF11D8081C7
:10185000B70190E00E94680F802F0113F3CFE6CF0D
:1018600085E490E0B7010E94680FD7FC06C0C11460
:10187000D10441F4EC85E4FF05C0D194C194D108B2
:101880008DE201C08BE2B70190E00E94680F80E317
:101890002AE0C216D1042CF08F5FFAE0CF1AD108EB
:1018A000F7CFB70190E00E94680FB701C601C0965C
:1018B0000E94680F54C1833631F0833779F0833545
:1018C00009F056C020C0560132E0A30EB11CF6014B
:1018D0008081898301E010E0630112C05601F2E0CB
:1018E000AF0EB11CF601C080D18096FE03C0612FFF
:1018F00070E002C06FEF7FEFC6010E945D0F8C01A8
:10190000F92DFF7714C0560122E0A20EB11CF6019A
:10191000C080D18096FE03C0612F70E002C06FEFDF
:101920007FEFC6010E94520F8C01F92DF0689F2EA7
:10193000F3FD1AC0852D90E008171907A8F4B70128
:1019400080E290E00E94680F5A94F4CFF60197FC71
:10195000859197FE81916F01B70190E00E94680F19
:1019600051105A94015011090115110579F7F7C06A
:10197000843611F0893661F5560197FE09C024E0DE
:10198000A20EB11CF60160817181828193810AC02F
:10199000F2E0AF0EB11CF60160817181072E000CE0
:1019A000880B990BF92DFF769F2E97FF09C0909514
:1019B0008095709561957F4F8F4F9F4FF0689F2E58
:1019C0002AE030E0A3010E94BA0FC82EC6183FC01B
:1019D000092D853721F40F7E2AE030E01DC0097FF4
:1019E0008F3691F018F4883559F0C3C0803719F05C
:1019F000883711F0BEC0006104FF09C0046007C051
:101A000094FE08C0066006C028E030E005C020E172
:101A100030E002C020E132E0560107FF09C084E057
:101A2000A80EB11CF601608171818281938108C08A
:101A3000F2E0AF0EB11CF6016081718180E090E0B0
:101A4000A3010E94BA0FC82EC6180F77902E96FEDB
:101A50000BC0092D0E7FC11650F494FE0AC092FCF3
:101A600008C0092D0E7E05C0DC2C092D03C0DC2C1E
:101A700001C0D12E04FF0DC0FE01EC0DF11D8081CF
:101A8000803311F4097E09C002FF06C0D394D394B9
:101A900004C0802F867809F0D39403FD11C000FFA5
:101AA00006C01C2DD51480F4150D1D190DC0D514BC
:101AB00058F4B70180E290E00E94680FD394F7CF0A
:101AC000D51410F45D1801C0512C04FF10C0B701EB
:101AD00080E390E00E94680F02FF17C001FD03C081
:101AE00088E790E002C088E590E0B7010CC0802F45
:101AF000867859F001FF02C08BE201C080E207FD49
:101B00008DE2B70190E00E94680FC11638F4B7016A
:101B100080E390E00E94680F1150F7CFCA94F30160
:101B2000EC0DF11D8081B70190E00E94680FC1109B
:101B3000F5CF15C0F4E0F51560F584E0581A93FE72
:101B40001FC0011127C02C8523FF2AC008E610E022
:101B5000392D3071932EF8018491811124C05520C4
:101B600009F4E4CCB70180E290E00E94680F5A9437
:101B7000F6CFF7018681978126C08FEF9FEF23C0B4
:101B8000B70180E290E00E94680F5A945110F8CF9C
:101B9000D8CF512CB701802F90E00E94680FD3CF8F
:101BA0000CE610E0D5CF91108052B70190E00E9472
:101BB000680F0F5F1F4FCFCF23E0251510F483E090
:101BC000BDCF512CC0CF6096E2E10C94030E2F9252
:101BD0003F924F925F926F927F928F929F92AF92BD
:101BE000BF92CF92DF92EF92FF920F931F93CF930A
:101BF000DF93CDB7DEB7CA1BDB0B0FB6F894DEBFA1
:101C00000FBECDBF09942A88398848885F846E84C6
:101C10007D848C849B84AA84B984C884DF80EE8010
:101C2000FD800C811B81AA81B981CE0FD11D0FB619
:101C3000F894DEBF0FBECDBFED0108958F929F9245
:101C4000AF92BF92CF92DF92EF92FF92CF93DF934A
:101C5000EC01688179818A819B816115710581051B
:101C6000910521F464E279ED8BE597E02DE133EF06
:101C700041E050E00E94181049015A019B01AC015B
:101C8000A7EAB1E40E9437106B017C01ACEEB4EF1F
:101C9000A50194010E944510DC01CB018C0D9D1D16
:101CA000AE1DBF1DB7FF03C00197A109B0488883CF
:101CB0009983AA83BB839F77DF91CF91FF90EF90A9
:101CC000DF90CF90BF90AF909F908F9008950E942B
:101CD0001E0E089580E091E00E941E0E0895A0E07F
:101CE000B0E08093000190930101A0930201B093B2
:101CF00003010895283008F027E03327DA01990F0F
:101D0000311D87FD916000966105710539F43260DF
:101D10002E5F3D9330E32A95E1F708959F3F30F021
:101D200080387105610509F03C5F3C5F3D9391305F
:101D300008F08068911DDF93CF931F930F93FF925C
:101D4000EF92192F987F9695E92F96959695E90F22
:101D5000FF27E653FF4F99273327EE24FF24A701DF
:101D6000E70105900894079428F4360FE71EF81E43
:101D7000491F511D660F771F881F991F0694A1F7F1
:101D80000590079428F4E70EF81E491F561FC11D41
:101D9000770F881F991F661F0694A1F70590079477
:101DA00028F4F80E491F561FC71FD11D880F991F11
:101DB000661F771F0694A1F70590079420F4490F3A
:101DC000561FC71FD81F990F661F771F881F0694BD
:101DD000A9F784911095177041F0D695C79557953E
:101DE0004795F794E7941A95C1F7E0E7F0E0689417
:101DF0001590159135916591959105907FE27395B8
:101E0000E118F10A430B560BC90BD009C0F7E10CDE
:101E1000F11E431F561FC91FD01D7EF4703311F4ED
:101E20008A95E6CFE894015030F0080F0AF40027B5
:101E3000021708F4202F2395022F7A3328F079E334
:101E40007D932A95E9F710C07D932A9589F606942B
:101E500097956795379517951794E118F10A430BF5
:101E6000560BC90BD00998F023957E9173957A3360
:101E700008F070E37C932013B8F77E9170617D9336
:101E800030F0839571E37D9370E32A95E1F7112497
:101E9000EF90FF900F911F91CF91DF91992787FDD0
:101EA00090950895FC010590615070400110D8F79D
:101EB000809590958E0F9F1F0895FC016150704092
:101EC00001900110D8F7809590958E0F9F1F08956F
:101ED0000F931F93CF93DF93FB01238121FD03C059
:101EE0008FEF9FEF2CC022FF16C0468157812481BF
:101EF00035814217530744F4A081B1819D012F5FC2
:101F00003F4F318320838C93268137812F5F3F4F52
:101F10003783268314C08B01EC01FB010084F1851B
:101F2000E02D0995892BE1F6D80116968D919C91AB
:101F30001797019617969C938E931697CE01DF9173
:101F4000CF911F910F910895A0E0B0E0EAEAFFE081
:101F50000C94F70DAE014B5F5F4FFA0161917191E7
:101F6000AF0180918105909182050E946A0AE2E0AA
:101F70000C94130EFA01AA27283051F1203181F177
:101F8000E8946F936E7F6E5F7F4F8F4F9F4FAF4F81
:101F9000B1E03ED0B4E03CD0670F781F891F9A1F94
:101FA000A11D680F791F8A1F911DA11D6A0F711D48
:101FB000811D911DA11D20D009F468943F912AE054
:101FC000269F11243019305D3193DEF6CF0108953C
:101FD000462F4770405D4193B3E00FD0C9F7F6CF6D
:101FE000462F4F70405D4A3318F0495D31FD405235
:101FF000419302D0A9F7EACFB4E0A69597958795CB
:1020000077956795BA95C9F70097610571050895A9
:102010009B01AC010A2E0694579547953795279555
:10202000BA95C9F7620F731F841F951FA01D0895ED
:10203000052E97FB1EF400940E942F1057FD07D029
:102040000E944A1007FC03D04EF40C942F105095B8
:102050004095309521953F4F4F4F5F4F0895909594
:102060008095709561957F4F8F4F9F4F08950E9487
:102070006C10A59F900DB49F900DA49F800D911D95
:1020800011240895B7FF0C9437100E943710821B5B
:10209000930B0895A1E21A2EAA1BBB1BFD010DC0D4
:1020A000AA1FBB1FEE1FFF1FA217B307E407F50708
:1020B00020F0A21BB30BE40BF50B661F771F881FE4
:1020C000991F1A9469F760957095809590959B017A
:1020D000AC01BD01CF010895A29FB001B39FC00123
:1020E000A39F700D811D1124911DB29F700D811D44
:0A20F0001124911D0895F894FFCF0C
:1020FA00010000007F7F7F7F717F717F7F7F7F7FFD
:10210A007E7F7A7B7F7F7F7F7F7F7F7F7F717F7FED
:10211A00717F7F7F0000606060787F7F7F7F7F6054
:10212A006060606060707078783E3F1F1F0F070123
:10213A000000000000000000000000000000000095
:10214A000000000000000000000000000000000085
:10215A000000000000000000000000000000000075
:10216A000000000000000000000000000000000065
:10217A0000000000FFFFF0F0F0F0F0F0F0F0F0F0F7
:10218A00F1F3F7FFFFFFF7F1F0F0F0F0F0F0F0F005
:10219A00F0F0F0FF000000000000FFFFFFFFFF006B
:1021AA000000000000000000000083FFFFFFFFFFA7
:1021BA003C000101030303030303010100000000C3
:1021CA0001010101030303030300000101030303E7
:1021DA0003030301000000000000010101030303DF
:1021EA0003030000000101030303030301010000CC
:1021FA0000000000E0FF03000103070F1E3E7FFFFF
:10220A00FFFF9F0F0F8FFFFFFF7F3E1E0F07030188
:10221A0000013FFC000000000000FFFFFFFFFF1C61
:10222A001C1C1C1C1C1C1C3C78F8F8F8F1EFDFFF86
:10223A007FFFE1C18181818181C1E1F9FFFF7F1FB8
:10224A00878080C0FFFFFFFFFF78F0E0C0C0C0C0FA
:10225A00C0E0FFFFFFFF3F070000808080FFFFFF15
:10226A00FFFF3C78F0E0C0C0C0C0E0F0FFFFFF7F96
:10227A001F0000000080E0F8FCFFFF3F1F1E3CF833
:10228A00F0E0C08000C0E0F0F83C1E1F3FFFFFFCFA
:10229A00F8E08000000000000000FFFFFFFFFF00E1
:1022AA00000000000000000000000000FEFFFFFF29
:1022BA00FFBF818080808080808080808080808055
:1022CA0080000000FFFFFFFFFF0000000000000089
:1022DA000000FFFFFFFFFFFF0000000000FFFFFFFD
:1022EA00FFFF00000000000000000000FFFFFFFFEA
:1022FA00FF00000000000000000080C0E0703018FD
:10230A000C0C0606060C0C18183060E0C0800000A1
:10231A00000000000000060E0E3EFEFEFEFEFE7EDF
:10232A000E0E060000000000000000000080E0F031
:10233A00F8FCFC7E3E1E0E0E0E060E0E0E1C3878A3
:10234A00E6060E1EFEFEFEFEFE0E0E06000000064D
:10235A00060EFEFEFEFEFEFE0E0E06060EFEFEFE3B
:10236A00FEFE7E0E0E06000000060E0EFEFEFEFEAD
:10237A00FE1E0E0600000000000000000000000023
:10238A000000000000000000000001010000000041
:10239A000000000000000000000000000000000132
:1023AA00010100000000000001010000000000001F
:1023BA000000000000000000010101000000000010
:1023CA000000010100000000000000000000000001
:1023DA0000000000000000000000000000000000F3
:1023EA0000000000000000000000000000000000E3
:1023FA00000000000000FFFFCECECECE001F1F1F40
:10240A0038381F1F1C383C1F0F00FFFF1C38381FAD
:10241A001F07071F1F3B3B1F1F07071F1F3838FFD8
:10242A00FFFF000F1F38381CFFFF000F1F1F3B3B29
:10243A001F1F070F1F1F3838FFFFFF00000000781B
:10244A00FCFCCECFC7C3181F1F03031F1F181E1F74
:10245A003F3B1B0118FFFF1818000F1F3B3B3B1F98
:10246A000F001F1F1C383C1F1F18383F1F07001F73
:10247A003F3B3B190000F0F07070707000F0F0F014
:10248A000000F0F0000000F0F000F0F0F07070F0E2
:10249A00E080C0E0F07030707000C0E0F07070E072
:1024AA00F0F000E0F0707070F0F000C0E0F0703012
:1024BA00707000C0E0F07070F0F0F0000000006092
:1024CA0070703070F0E00000EEFEFCE0000070700A
:1024DA0030F0F0E000E0F0707000E0F07030307042
:1024EA006000F0F0000000F0F00000F0F0F0607022
:1024FA0030B0F0E00300020001000000070006000F
:10250A00050004000100000001000000000000595D
:10251A00060000000000020000000047060000005C
:10252A000053656C656374204D6F646500546F7564
:10253A00636800416363656C65726F6D657465728B
:10254A00003220506C61796572730053636F726553
:10255A003A00546F7563686564006E6F7420746F17
:06256A0075636865640062
:00000001FF
